:020000040800F2
:1000000000000824CD270008192000081B20000844
:100010001D2000081F20000821200008000000000B
:100020000000000000000000000000002320000885
:1000300025200008000000002720000829200008D3
:100040001D2800081D2800081D2800081D2800087C
:100050001D2800081D2800081D2800083120000860
:100060001D2800081D2800081D2800081D2800085C
:100070001D2800081D2800081D2800081D2800084C
:100080001D2800081D2800081D2800081D2800083C
:100090001D2800081D2800081D2800081D2800082C
:1000A0001D2800081D2800081D2800083D20000804
:1000B0001D2800084D200008652000081D280008A4
:1000C0001D2800081D2800081D2800081D280008FC
:1000D0001D280008752000081D2800081D2800089C
:1000E0001D2800081D280008000000001D28000829
:1000F0001D2800081D2800081D2800081D280008CC
:100100001D2800081D2800081D2800081D280008BB
:100110001D2800081D2800081D2800081D280008AB
:100120001D2800081D2800081D2800081D2800089B
:100130001D2800081D2800081D2800081D2800088B
:1001400000000000000000000000000000000000AF
:100150001D2800081D2800081D2800081D2800086B
:100160001D2800081D28000885200008952000088B
:100170001D280008A52000081D2800081D280008CB
:100180001D2800081D2800081D2800081D2800083B
:100190001D2800081D2800081D2800081D2800082B
:1001A0001D2800081D2800081D2800081D2800081B
:1001B0001D2800081D2800081D2800081D2800080B
:1001C0001D2800081D2800081D2800081D280008FB
:1001D0001D2800081D2800081D2800081D280008EB
:1001E0001D2800081D2800081D2800081D280008DB
:1001F0001D2800081D2800081D2800081D280008CB
:100200001D2800081D2800081D2800081D280008BA
:100210001D2800081D2800081D2800081D280008AA
:100220001D2800081D2800081D28000800000000E7
:100230001D2800081D280008000000001D280008D7
:100240001D2800081D2800081D2800081D2800087A
:100250001D2800081D2800081D2800081D2800086A
:100260001D2800081D2800081D2800081D2800085A
:100270001D2800081D2800081D2800080000000097
:100280001D2800081D2800081D2800080000000087
:08029000000000001D28000819
:1002C00010B5054C237833B9044B13B10448AFF390
:1002D00000800123237010BDA80A00240000000044
:1002E000700B010808B5034B1BB103490348AFF37A
:1002F000008008BD00000000AC0A0024700B01085B
:1003000080F0004002E000BF81F0004142001FBFCA
:100310005FEA410392EA030F7FEA226C7FEA236CD3
:100320006AD04FEA1262D2EB1363C1BFD2184140C8
:1003300048404140B8BF5B42192B88BF704710F05E
:10034000004F40F4000020F07F4018BF404211F001
:10035000004F41F4000121F07F4118BF494292EA69
:10036000030F3FD0A2F1010241FA03FC10EB0C0095
:10037000C3F1200301FA03F100F0004302D5494222
:1003800060EB4000B0F5000F13D3B0F1807F06D3CF
:1003900040084FEA310102F10102FE2A51D2B1F1C7
:1003A000004F40EBC25008BF20F0010040EA0300BC
:1003B0007047490040EB0000013A28BFB0F5000F3C
:1003C000EDD2B0FA80FCACF1080CB2EB0C0200FAF2
:1003D0000CF0AABF00EBC25052421843BCBFD04041
:1003E0001843704792F0000F81F4000106BF80F4BB
:1003F00000000132013BB5E74FEA41037FEA226C7E
:1004000018BF7FEA236C21D092EA030F04D092F048
:10041000000F08BF0846704790EA010F1CBF00207C
:10042000704712F07F4F04D1400028BF40F00040D9
:10043000704712F100723CBF00F50000704700F0F9
:10044000004343F0FE4040F4000070477FEA226220
:1004500016BF08467FEA23630146420206BF5FEAF1
:10046000412390EA010F40F4800070474FF00003F1
:1004700004E000BF10F0004348BF40425FEA000CB8
:1004800008BF704743F0964301464FF000001CE060
:1004900050EA010208BF70474FF000030AE000BFB6
:1004A00050EA010208BF704711F0004302D54042F4
:1004B00061EB41015FEA010C02BF84460146002066
:1004C00043F0B64308BFA3F18053A3F50003BCFA81
:1004D0008CF2083AA3EBC25310DB01FA02FC63442E
:1004E00000FA02FCC2F12002BCF1004F20FA02F235
:1004F00043EB020008BF20F00100704702F1200228
:1005000001FA02FCC2F1200250EA4C0021FA02F288
:1005100043EB020008BF20EADC7070474FF0FF0C8D
:100520001CEAD0521EBF1CEAD15392EA0C0F93EA88
:100530000C0F6FD01A4480EA010C400218BF5FEA2A
:1005400041211ED04FF0006343EA501043EA51119D
:10055000A0FB01310CF00040B1F5000F3EBF490097
:1005600041EAD3715B0040EA010062F17F02FD2A9B
:100570001DD8B3F1004F40EBC25008BF20F001007E
:10058000704790F0000F0CF0004C08BF49024CEA95
:10059000502040EA51207F3AC2BFD2F1FF0340EA27
:1005A000C250704740F400004FF00003013A5DDC98
:1005B00012F1190FDCBF00F000407047C2F10002D9
:1005C000410021FA02F1C2F1200200FA02FC5FEAC6
:1005D000310040F1000053EA4C0308BF20EADC7010
:1005E000704792F0000F00F0004C02BF400010F482
:1005F000000F013AF9D040EA0C0093F0000F01F02F
:10060000004C02BF490011F4000F013BF9D041EA50
:100610000C018FE70CEAD15392EA0C0F18BF93EA52
:100620000C0F0AD030F0004C18BF31F0004CD8D17C
:1006300080EA010000F00040704790F0000F17BF03
:1006400090F0004F084691F0000F91F0004F14D049
:1006500092EA0C0F01D142020FD193EA0C0F03D1A1
:100660004B0218BF084608D180EA010000F00040A4
:1006700040F0FE4040F40000704740F0FE4040F47F
:10068000400070474FF0FF0C1CEAD0521EBF1CEA1E
:10069000D15392EA0C0F93EA0C0F69D0A2EB03023C
:1006A00080EA010C49024FEA402037D04FF08053D6
:1006B00043EA111143EA10130CF000408B4238BF9B
:1006C0005B0042F17D024FF4000C8B4224BF5B1AA9
:1006D00040EA0C00B3EB510F24BFA3EB510340EAF7
:1006E0005C00B3EB910F24BFA3EB910340EA9C00A5
:1006F000B3EBD10F24BFA3EBD10340EADC001B0115
:1007000018BF5FEA1C1CE0D1FD2A3FF650AF8B42B8
:1007100040EBC25008BF20F0010070470CF0004CC5
:100720004CEA50207F32C2BFD2F1FF0340EAC250F0
:10073000704740F400004FF00003013A37E792F0B1
:10074000000F00F0004C02BF400010F4000F013A0F
:10075000F9D040EA0C0093F0000F01F0004C02BF0A
:10076000490011F4000F013BF9D041EA0C0195E773
:100770000CEAD15392EA0C0F08D142027FF47DAF0C
:1007800093EA0C0F7FF470AF084676E793EA0C0FFC
:1007900004D14B023FF44CAF08466EE730F0004CFA
:1007A00018BF31F0004CCAD130F000427FF45CAF8A
:1007B00031F000437FF43CAF5FE700BF42000ED250
:1007C000B2F1FE4F0BD34FF09E03B3EB126209D48C
:1007D0004FEA002343F0004323FA02F070474FF042
:1007E0000000704712F1610F01D1420202D14FF0B7
:1007F000FF3070474FF00000704700BF53B94AB94F
:10080000002908BF00281CBF4FF0FF314FF0FF3018
:1008100000F074B9ADF1080C6DE904CE00F006F8F3
:10082000DDF804E0DDE9022304B070472DE9F0476C
:10083000089E0D4604468846002B4DD18A429446B8
:1008400068D9B2FA82F252B101FA02F3C2F1200180
:1008500020FA01F10CFA02FC41EA030894404FEA45
:100860001C45210CB8FBF5FE1FFA8CF705FB1E8317
:1008700041EA03430EFB07F199420BD91CEB03033A
:100880000EF1FF3080F01E81994240F21B81AEF1E3
:10089000020E63445B1AA4B2B3FBF5F005FB103300
:1008A00044EA034400FB07F7A7420AD91CEB0404FF
:1008B00000F1FF3380F00881A74240F205816444D3
:1008C0000238E41B40EA0E4000211EB1D440002350
:1008D000C6E90043BDE8F0878B4208D9002E00F03E
:1008E000EE800021C6E900050846BDE8F087B3FAAE
:1008F00083F100294AD1AB4202D3824200F2F9804F
:10090000841A65EB030301209846002EE2D0C6E965
:100910000048DFE702B9FFDEB2FA82F2002A40F0B7
:100920009180A1EB0C054FEA1C471FFA8CFE0121B8
:10093000B5FBF7F307FB1350250C45EA00450EFB0A
:1009400003F0A84208D91CEB050503F1FF3802D2D9
:10095000A84200F2CB8043462D1AA4B2B5FBF7F0B3
:1009600007FB105544EA05440EFB00FEA64508D9D6
:100970001CEB040400F1FF3502D2A64500F2BB8057
:100980002846A4EB0E0440EA03409EE7C1F120078D
:100990008B4022FA07FC4CEA030C20FA07F405FA14
:1009A00001F31C43FD404FEA1C4900FA01F3B5FB7B
:1009B000F9F8200C1FFA8CFE09FB185540EA054592
:1009C00008FB0EF0A84202FA01F20BD91CEB050558
:1009D00008F1FF3A80F08880A84240F28580A8F1B3
:1009E000020865442D1AA4B2B5FBF9F009FB1055B5
:1009F00044EA054500FB0EFEAE4508D91CEB050593
:100A000000F1FF346CD2AE456AD90238654440EA41
:100A10000840A0FB0294A5EB0E05A542C846A646D9
:100A200056D353D05EB1B3EB080265EB0E0505FA61
:100A300007F722FA01F3CD401F43C6E900750021F4
:100A4000BDE8F087C2F1200320FA03F10CFA02FCA2
:100A500025FA03F395400D434FEA1C471FFA8CFE1D
:100A6000B3FBF7F107FB11302B0C43EA004301FB0A
:100A70000EF0984204FA02F408D91CEB030301F1CA
:100A8000FF382FD298422DD9023963441B1AADB2D8
:100A9000B3FBF7F007FB103345EA034500FB0EF309
:100AA000AB4208D91CEB050500F1FF3816D2AB426A
:100AB00014D902386544ED1A40EA014138E731465D
:100AC000304607E78646E5E61846FAE64B45A9D2E2
:100AD000B9EB020864EB0C0E0138A3E74046EAE7E5
:100AE000204694E74146D1E7D0467BE7023B654488
:100AF00032E7084609E76444023842E7704700BF1E
:100B000090F800F06DE9024520F007016FF0000C4D
:100B100010F0070491F820F040F049804FF00004F5
:100B20006FF00700D1E9002391F840F000F10800D0
:100B300082FA4CF2A4FA8CF283FA4CF3A2FA8CF308
:100B40004BBBD1E9022382FA4CF200F10800A4FA6F
:100B50008CF283FA4CF3A2FA8CF3E3B9D1E90423C3
:100B600082FA4CF200F10800A4FA8CF283FA4CF3FA
:100B7000A2FA8CF37BB9D1E9062301F1200182FAB4
:100B80004CF200F10800A4FA8CF283FA4CF3A2FABA
:100B90008CF3002BC6D0002A04BF04301A4612BAC8
:100BA000B2FA82F2FDE8024500EBD2007047D1E9CB
:100BB000002304F00305C4F100004FEAC50514F05A
:100BC000040F91F840F00CFA05F562EA05021CBF2B
:100BD00063EA050362464FF00004A9E70000000045
:100BE00001F0FF01102A2BDB10F0070F08D010F8DE
:100BF000013B013A8B422DD010F0070F42B3F6D1E2
:100C0000F0B441EA012141EA014122F007047FF0FA
:100C100000070023F0E80256083C85EA010586EA51
:100C2000010685FA47F5A3FA87F586FA47F6A5FA8D
:100C300087F68EB9EED1F0BC01F0FF0102F0070299
:100C400032B110F8013B013A83EA010313B1F8D144
:100C50000020704701387047002D06BF3546033825
:100C6000073815F0010F07D1013015F4807F02BF5E
:100C7000013015F4C03F0130F0BC0138704700BFAF
:100C8000844641EA000313F003036DD1403A41D397
:100C900051F8043B40F8043B51F8043B40F8043B56
:100CA00051F8043B40F8043B51F8043B40F8043B46
:100CB00051F8043B40F8043B51F8043B40F8043B36
:100CC00051F8043B40F8043B51F8043B40F8043B26
:100CD00051F8043B40F8043B51F8043B40F8043B16
:100CE00051F8043B40F8043B51F8043B40F8043B06
:100CF00051F8043B40F8043B51F8043B40F8043BF6
:100D000051F8043B40F8043B51F8043B40F8043BE5
:100D1000403ABDD2303211D351F8043B40F8043B85
:100D200051F8043B40F8043B51F8043B40F8043BC5
:100D300051F8043B40F8043B103AEDD20C3205D395
:100D400051F8043B40F8043B043AF9D2043208D08D
:100D5000D2071CBF11F8013B00F8013B01D30B88FF
:100D600003806046704700BF082A13D38B078DD0DD
:100D700010F003038AD0C3F10403D21ADB071CBFAF
:100D800011F8013B00F8013B80D331F8023B20F819
:100D9000023B7BE7043AD9D3013A11F8013B00F852
:100DA000013BF9D20B7803704B7843708B788370DA
:100DB0006046704781F0004102E000BF83F00043CD
:100DC00030B54FEA41044FEA430594EA050F08BFE6
:100DD00090EA020F1FBF54EA000C55EA020C7FEAAA
:100DE000645C7FEA655C00F0E2804FEA5454D4EB27
:100DF0005555B8BF6D420CDD2C4480EA020281EAF1
:100E0000030382EA000083EA010180EA020281EA28
:100E10000303362D88BF30BD11F0004F4FEA01317A
:100E20004FF4801C4CEA113102D0404261EB410189
:100E300013F0004F4FEA03334CEA133302D052420F
:100E400063EB430394EA050F00F0A780A4F10104CB
:100E5000D5F1200E0DDB02FA0EFC22FA05F2801805
:100E600041F1000103FA0EF2801843FA05F35941EB
:100E70000EE0A5F120050EF1200E012A03FA0EFC6A
:100E800028BF4CF0020C43FA05F3C01851EBE37194
:100E900001F0004507D54FF0000EDCF1000C7EEBB1
:100EA00000006EEB0101B1F5801F1BD3B1F5001FEF
:100EB0000CD349085FEA30004FEA3C0C04F101040E
:100EC0004FEA445212F5800F80F09A80BCF1004F37
:100ED00008BF5FEA500C50F1000041EB045141EAB9
:100EE000050130BD5FEA4C0C404141EB0101013C82
:100EF00028BFB1F5801FE9D291F0000F04BF014671
:100F00000020B1FA81F308BF2033A3F10B03B3F142
:100F100020020CDA0C3208DD02F1140CC2F10C02D2
:100F200001FA0CF021FA02F10CE002F11402D8BF30
:100F3000C2F1200C01FA02F120FA0CFCDCBF41EAFC
:100F40000C019040E41AA2BF01EB0451294330BDCB
:100F50006FEA04041F3C1CDA0C340EDC04F11404A8
:100F6000C4F1200220FA04F001FA02F340EA03007F
:100F700021FA04F345EA030130BDC4F10C04C4F1C5
:100F8000200220FA02F001FA04F340EA03002946A5
:100F900030BD21FA04F0294630BD94F0000F83F4EF
:100FA000801306BF81F480110134013D4EE77FEAD2
:100FB000645C18BF7FEA655C29D094EA050F08BF1E
:100FC00090EA020F05D054EA000C04BF19461046FF
:100FD00030BD91EA030F1EBF0021002030BD5FEA43
:100FE000545C05D14000494128BF41F0004130BD6B
:100FF00014F580043CBF01F5801130BD01F00045BF
:1010000045F0FE4141F470014FF0000030BD7FEA31
:10101000645C1ABF194610467FEA655C1CBF0B462C
:10102000024650EA013406BF52EA033591EA030F43
:1010300041F4002130BD00BF90F0000F04BF00213B
:10104000704730B54FF4806404F132044FF000056E
:101050004FF0000150E700BF90F0000F04BF0021E7
:10106000704730B54FF4806404F1320410F000454D
:1010700048BF40424FF000013EE700BF42004FEA48
:10108000E2014FEA31014FEA02701FBF12F07F43C5
:1010900093F07F4F81F06051704732F07F4208BF7C
:1010A000704793F07F4F04BF41F40021704730B583
:1010B0004FF4607401F0004521F000411CE700BFCF
:1010C00050EA010208BF704730B54FF000050AE052
:1010D00050EA010208BF704730B511F0004502D553
:1010E000404261EB41014FF4806404F132045FEA55
:1010F000915C3FF4D8AE4FF003025FEADC0C18BFFE
:1011000003325FEADC0C18BF033202EBDC02C2F1EF
:10111000200300FA03FC20FA02F001FA03FE40EA81
:101120000E0021FA02F11444BDE600BF70B54FF085
:10113000FF0C4CF4E06C1CEA11541DBF1CEA135563
:1011400094EA0C0F95EA0C0F00F0DEF82C4481EACB
:10115000030621EA4C5123EA4C5350EA013518BFEB
:1011600052EA033541F4801143F4801338D0A0FBD8
:1011700002CE4FF00005E1FB02E506F00042E0FB85
:1011800003E54FF00006E1FB03569CF0000F18BF8B
:101190004EF0010EA4F1FF04B6F5007F64F5407433
:1011A00004D25FEA4E0E6D4146EB060642EAC621C6
:1011B00041EA55514FEAC52040EA5E504FEACE2E33
:1011C000B4F1FD0C88BFBCF5E06F1ED8BEF1004F36
:1011D00008BF5FEA500E50F1000041EB045170BDB2
:1011E00006F0004646EA010140EA020081EA0301F6
:1011F000B4EB5C04C2BFD4EB0C0541EA045170BDF2
:1012000041F480114FF0000E013C00F3AB8014F16B
:10121000360FDEBF002001F0004170BDC4F10004B4
:10122000203C35DA0C341BDC04F11404C4F1200535
:1012300000FA05F320FA04F001FA05F240EA020090
:1012400001F0004221F0004110EBD37021FA04F6C6
:1012500042EB06015EEA430E08BF20EAD37070BD80
:10126000C4F10C04C4F1200500FA04F320FA05F0DF
:1012700001FA04F240EA020001F0004110EBD370E1
:1012800041F100015EEA430E08BF20EAD37070BD51
:10129000C4F1200500FA05F24EEA020E20FA04F32A
:1012A00001FA05F243EA020321FA04F001F00041D9
:1012B00021FA04F220EA020000EBD3705EEA430E4A
:1012C00008BF20EAD37070BD94F0000F0FD101F079
:1012D0000046400041EB010111F4801F08BF013CB2
:1012E000F7D041EA060195F0000F18BF704703F0F0
:1012F0000046520043EB030313F4801F08BF013D77
:10130000F7D043EA0603704794EA0C0F0CEA135532
:1013100018BF95EA0C0F0CD050EA410618BF52EAEC
:101320004306D1D181EA030101F000414FF00000F2
:1013300070BD50EA410606BF1046194652EA430600
:1013400019D094EA0C0F02D150EA013613D195EA74
:101350000C0F05D152EA03361CBF104619460AD1BC
:1013600081EA030101F0004141F0FE4141F47001C6
:101370004FF0000070BD41F0FE4141F4780170BDB6
:1013800070B54FF0FF0C4CF4E06C1CEA11541DBF1B
:101390001CEA135594EA0C0F95EA0C0F00F0A7F81D
:1013A000A4EB050481EA030E52EA03354FEA01314A
:1013B00000F088804FEA03334FF0805545EA13135D
:1013C00043EA12634FEA022245EA111545EA106525
:1013D0004FEA00260EF000419D4208BF964244F1BC
:1013E000FD0404F5407402D25B084FEA3202B61ADB
:1013F00065EB03055B084FEA32024FF480104FF4AF
:10140000002CB6EB020E75EB030E22BFB61A754622
:1014100040EA0C005B084FEA3202B6EB020E75EBB5
:10142000030E22BFB61A754640EA5C005B084FEA1D
:101430003202B6EB020E75EB030E22BFB61A7546EA
:1014400040EA9C005B084FEA3202B6EB020E75EBF5
:10145000030E22BFB61A754640EADC0055EA060EB6
:1014600018D04FEA051545EA16754FEA06164FEAF9
:10147000C30343EA52734FEAC2025FEA1C1CC0D1A5
:1014800011F4801F0BD141EA00014FF000004FF032
:10149000004CB6E711F4801F04BF01430020B4F1F3
:1014A000FD0C88BFBCF5E06F3FF6AFAEB5EB030CAB
:1014B00004BFB6EB020C5FEA500C50F1000041EBA8
:1014C000045170BD0EF0004E4EEA113114EB5C0475
:1014D000C2BFD4EB0C0541EA045170BD41F4801148
:1014E0004FF0000E013C90E645EA060E8DE60CEA50
:1014F000135594EA0C0F08BF95EA0C0F3FF43BAF6D
:1015000094EA0C0F0AD150EA01347FF434AF95EA23
:101510000C0F7FF425AF104619462CE795EA0C0F07
:1015200006D152EA03353FF4FDAE1046194622E7D4
:1015300050EA410618BF52EA43067FF4C5AE50EAAE
:1015400041047FF40DAF52EA43057FF4EBAE12E79E
:101550004FF0FF3C06E000BF4FF0010C02E000BF7F
:101560004FF0010C4DF804CD4FEA410C7FEA6C5C62
:101570004FEA430C18BF7FEA6C5C1BD001B050EA05
:10158000410C0CBF52EA430C91EA030F02BF90EAF0
:10159000020F0020704710F1000F91EA030F58BFAF
:1015A000994208BF90422CBFD8176FEAE37040F011
:1015B000010070474FEA410C7FEA6C5C02D150EAAF
:1015C000013C07D14FEA430C7FEA6C5CD6D152EA6A
:1015D000033CD3D05DF8040B704700BF844610462F
:1015E00062468C461946634600E000BF01B5FFF72E
:1015F000B7FF002848BF10F1000F01BD4DF808EDFE
:10160000FFF7F4FF0CBF012000205DF808FB00BFCE
:101610004DF808EDFFF7EAFF34BF012000205DF828
:1016200008FB00BF4DF808EDFFF7E0FF94BF012075
:1016300000205DF808FB00BF4DF808EDFFF7CEFF76
:1016400094BF012000205DF808FB00BF4DF808EDB5
:10165000FFF7C4FF34BF012000205DF808FB00BF86
:101660004FEA410C7FEA6C5C02D150EA013C0AD19E
:101670004FEA430C7FEA6C5C02D152EA033C02D190
:101680004FF0000070474FF0010070474FEA4102F1
:1016900012F5001215D211D56FF47873B3EB6252C4
:1016A00012D94FEAC12343F0004343EA505311F0EB
:1016B000004F23FA02F018BF404270474FF000007D
:1016C000704750EA013005D111F0004008BF6FF0BB
:1016D000004070474FF00000704700BF70B50446EF
:1016E0000E461546002210210E4801F071FD0E4AEB
:1016F00000231370547006E0981C16F803C00A4CBF
:1017000004F800C001339D42F6DC6423AA1C06499C
:10171000064804F0FBFB01221021024801F058FDAD
:10172000002070BD00000258D40A0024A813002431
:1017300010B483B0019018E04FF461744FF0E023CF
:101740009A69A4EB04135901891816D44FF0E023C9
:101750009B699A42D4BF002001209942C8BF002053
:101760000028F3D1019B1B1B0193019BABB1019B93
:10177000B3F5617FE0D8019CE0E7094808444FF0E9
:10178000E02399698842ACBF002301238A42A8BFA5
:1017900043F00103002BF2D1E4E703B010BC704723
:1017A0000053070038B505460C46002210211E489C
:1017B00001F00EFD1420FFF7BBFF1C4980230B70C6
:1017C0004D70642302221A4804F0A0FB88B96423F8
:1017D00001222146164804F0FBFC05461420FFF7C1
:1017E000A7FF01221021104801F0F2FCBDB900252D
:1017F0000EE0012210210C4801F0EAFC0D4809F02E
:10180000BBF901200AE0615D0B4809F053F901358D
:10181000002DF8D0094809F0AFF9207838BD084804
:1018200009F0AAF9F9E700BF00000258D40A002421
:10183000A8130024880B0108A00B0108A80B0108BD
:10184000AC0B0108F8B504460D4616460B4F0022B6
:101850001021384601F0BCFC1420FFF769FF324626
:1018600029462046FFF73AFF1420FFF761FF0122C7
:101870001021384601F0ACFCF8BD00BF0000025852
:1018800010B592B018238DF80430012201A9002070
:10189000FFF7D8FF00248DF80840012202A9142088
:1018A000FFF7D0FF8DF80C40012203A91420FFF7A9
:1018B000C9FF10238DF8103001220DEB03013020F9
:1018C000FFF7C0FF8DF81440012205A90D20FFF796
:1018D000B9FF80238DF81830012206A90820FFF7F0
:1018E000B1FF02238DF81C30012207A90520FFF764
:1018F000A9FF1C238DF82030012208A91720FFF72B
:10190000A1FF01228DF8242009A9FF20FFF79AFFEB
:101910000AE018238DF8283001220AA90020FFF7D9
:1019200091FF322000F0E4FF47490020FFF73AFF23
:101930001828EED102E0322000F0DAFF42490120FF
:10194000FFF730FF3228F6D10AE000238DF82C3063
:1019500001220BA91420FFF775FF322000F0C8FF09
:1019600039491420FFF71EFF0028EED10AE01023AA
:101970008DF8303001220CA93020FFF763FF3220B0
:1019800000F0B6FF30493020FFF70CFF1028EED1F1
:101990000AE000238DF8343001220DA90D20FFF755
:1019A00051FF322000F0A4FF27490D20FFF7FAFE77
:1019B0000028EED10AE080238DF8383001220EA9EC
:1019C0000820FFF73FFF322000F092FF1E49082059
:1019D000FFF7E8FE8028EED10AE002238DF83C30C4
:1019E00001220FA90520FFF72DFF322000F080FF14
:1019F00015490520FFF7D6FE0228EED10AE01C2388
:101A00008DF84030012210A91720FFF71BFF32206C
:101A100000F06EFF0C491720FFF7C4FE1C28EED122
:101A200009E001228DF8442011A9FF20FFF70AFFE9
:101A3000322000F05DFF0449FF20FFF7B3FE0028CD
:101A4000EFD112B010BD00BFC40A00242DE9F0414F
:101A50008CB000240794089409940A940B94484B82
:101A6000D3F8E02042F01002C3F8E020D3F8E020E1
:101A700002F010020192019AD3F8E02042F08002B5
:101A8000C3F8E020D3F8E02002F080020292029A2C
:101A9000D3F8E02042F00402C3F8E020D3F8E020BD
:101AA00002F004020392039AD3F8E02042F001020C
:101AB000C3F8E020D3F8E02002F001020492049A77
:101AC000D3F8E02042F00202C3F8E020D3F8E0208F
:101AD00002F002020592059AD3F8E02042F00802D3
:101AE000C3F8E020D3F8E03003F008030693069B28
:101AF000DFF89080224642F62001404601F068FB64
:101B0000214E22461021304601F062FB1F4F224633
:101B10004FF6FF71384601F05BFB42F62003079356
:101B20000125089509940A9407A9404601F03CFA5A
:101B3000022307934FF488130893099407A93046AA
:101B400001F032FA10230793089509940A9407A923
:101B5000304601F029FA4FF6FF7307930895099470
:101B60000A9407A9384601F01FFA224621460720A9
:101B700000F0EAFE072000F01DFF0CB0BDE8F08188
:101B8000004402580010025800000258000C02588D
:101B900010B40346002828DBDB10184A32F8131073
:101BA000174A115400F1010C090A02F80C10154CE7
:101BB00054F82330811C5354C11CC3F307235354DE
:101BC00054F820204CF250339A4210DD031D0C4A89
:101BD000FF21D154431DD154821D094B0D2199542D
:101BE0000730FF221A5410BC7047C31DD4E7031DF1
:101BF000034A0021D154431DD154EDE7341400248D
:101C0000D40B0024D823002472B6FEE700B59FB0A1
:101C10004C2200210BA808F0FBFE2022002103A883
:101C200008F0F6FE022002F057F9002300933B4B28
:101C3000DA6A22F00102DA62DB6A03F00103009340
:101C4000374B9A6942F440429A619B6903F44043DE
:101C50000093009B324B9B6913F4005FFAD0314B29
:101C6000D3F8F42042F00202C3F8F420D3F8F430A1
:101C700003F002030193019B00230293284B9A690E
:101C800042F440429A619B6903F440430293234B20
:101C9000DA6A42F00102DA62DB6A03F001030293BE
:101CA000029B1F4B9B6913F4005FFAD023230B9315
:101CB0004FF480330C9301230E9340220F92119323
:101CC0000223149315931693F022179218931993E5
:101CD0001A9308231B9300231C931D930BA802F057
:101CE0002DF9B0B93F2303930323049300230593F5
:101CF000082306934023079308934FF480620992C8
:101D00000A93042103A802F07FFD20B91FB05DF8FB
:101D100004FBFFF779FFFFF777FF00BF00040058CF
:101D2000004802580044025800B5B1B0C02200215A
:101D3000684608F06DFE4FF000420023CDE9002315
:101D4000684602F0FDFF10B931B05DF804FBFFF703
:101D50005BFF000010B500F08BFDFFF757FFFFF7AA
:101D6000E3FFFFF773FE00F0AFF800F013FC00F0A4
:101D70008FFA00F0A3FC08F05FFB00F02DFA00F0F2
:101D8000BDFA144800F030F8FFF77AFD642000F047
:101D9000AFFD0021104805F0E7FA3C210F4805F09F
:101DA0006FFC10E02046FFF7F3FE083440F23E637C
:101DB0009C42F7DD4FF4C861094808F091FB094BDC
:101DC00000221A8062B6074B1B88C62BFAD972B65E
:101DD0000024EBE74844002464430024B04300247B
:101DE000D40B0024D423002408B5054B1860054B00
:101DF0001868002302221946806808F0C5FE08BD55
:101E0000A4130024FC000024022801D801207047FC
:101E100008B508F0D3FD09230360002008BD0000C9
:101E200010B5013801280AD814464FF0FF3392B29A
:101E30000748006806F0B8FA40B9204610BD08F01F
:101E4000BDFD092303604FF0FF30F7E70520F5E7FC
:101E5000A4130024022801D80020704708B508F018
:101E6000ADFD092303604FF0FF3008BD08B508F051
:101E7000A5FD092303604FF0FF3008BD08B548B940
:101E80004FF0FF3301220848006806F0F5FA40B928
:101E9000012008BD08F092FD092303604FF0FF30D8
:101EA000F7E70520F5E700BFA413002408B50228D2
:101EB00004D84FF400534B60002008BD08F07EFDAD
:101EC00009230360F8E7000008B51448144B0360C9
:101ED0004FF4800343604FF4C02383600723C36043
:101EE0000023036143614FF080628261C36103623A
:101EF00043628362C3624FF0804242638363C36381
:101F0000036443648364C36403654365836503F0CA
:101F100035FF00B908BDFFF777FEFBE7A8130024E3
:101F20000030014070B5BAB00446002135913691B9
:101F3000379138913991C02204A808F069FD2268D0
:101F4000284B9A4201D03AB070BD4FF48052002322
:101F5000CDE904234FF480431C9304A802F0F0FE63
:101F600000283CD1204BD3F8F02042F48052C3F833
:101F7000F020D3F8F02002F480520192019AD3F8B5
:101F8000E02042F00102C3F8E020D3F8E02002F0A4
:101F900001020292029AD3F8E02042F00202C3F852
:101FA000E020D3F8E03003F002030393039B802387
:101FB00035930226369600243794389405253995B2
:101FC00035A90A4800F0F0FF082335933696379478
:101FD0003894399535A9064800F0E6FFB3E7FFF7D6
:101FE00013FEBFE7003001400044025800000258D1
:101FF0000004025882B0074BD3F8F42042F00202EA
:10200000C3F8F420D3F8F43003F002030193019BEA
:1020100002B0704700440258FEE7FEE7FEE7FEE725
:10202000FEE770477047704708B500F04FFC08BDE9
:1020300008B5022001F0D3F808BD000008B5024839
:1020400004F040FC08BD00BF1843002410B5044C48
:10205000204604F037FC236800225A6210BD00BFFE
:10206000B043002408B5024804F02CFC08BD00BFB2
:10207000FC43002408B5024805F006FC08BD00BF7B
:102080004844002408B5024801F0E7FB08BD00BF42
:10209000C059002408B5024801F0DFFB08BD00BFAD
:1020A000C059002408B5024801F0D7FB08BD00BFA5
:1020B000C05900240120704708B508F07FFC1623A2
:1020C00003604FF0FF3008BD08B54FF0FF31FFF758
:1020D000F3FFFEE710B503460C4A0D490D480068B2
:1020E00040B10C4800680344521A934206D8094A8A
:1020F000136010BD0748084C0460F2E708F05EFC6E
:102100000C2303604FF0FF30F3E700BF000008240A
:10211000000400003014002410610024244B1B68CC
:1021200003F00F03062B06D8214A136823F00F0390
:1021300043F0070313601F4B1A6842F001021A6054
:1021400000221A6119681C4A0A401A60184B1B6861
:1021500013F0080F06D0164A136823F00F0343F05C
:1021600007031360134B00229A61DA611A62134964
:1021700099621349D962134919635A639963DA63FF
:1021800019645A64196821F4802119601A660E4B8B
:102190001A680E4B1340B3F1005F03D20C4B0122BF
:1021A000C3F808210B4B43F2D2021A60704700BFFC
:1021B00000200052004402587FEDF6EA00020202BD
:1021C0000000FF01800201010010005C0000FFFF21
:1021D000008000510040005200B58DB000230793ED
:1021E000089309930A930B93049305930693009322
:1021F0000193029303932448244A0260032242601D
:1022000083604FF6FF72C26003614361836104F033
:10221000A1FC50BB1C4804F0FDFC48BB0423079301
:1022200050230893002309930B9307A9164805F040
:1022300063F800BB002304930593069304A9124896
:1022400005F082FAD0B90022009201230193029294
:10225000039269460C4804F09DFE90B900210A489B
:1022600005F036F90DB05DF804FBFFF7CDFCD1E7C2
:10227000FFF7CAFCD2E7FFF7C7FCDBE7FFF7C4FCB8
:10228000E1E7FFF7C1FCE9E7184300240000014043
:1022900000B58DB02422002103A808F0B9FB00236B
:1022A0000093019302931348134A02600322426091
:1022B00083604FF6FF71C160036183610392012265
:1022C00005920523079309920B9303A904F0D2FC0E
:1022D00050B90023009302936946064805F034FA8A
:1022E00028B90DB05DF804FBFFF78EFCF1E7FFF7AE
:1022F0008BFCF6E7B04300240004004000B58DB02D
:1023000000230793089309930A930B93049305936F
:10231000069300930193029303932448244A026096
:102320000322426083604FF6FF72C26003618361E3
:1023300004F010FC58BB1D4804F06CFC50BB042397
:102340000793502308930223099300230B9307A9B3
:10235000164804F0D1FF00BB00230493069304A9A0
:10236000124805F0F1F9D8B9022300930123019333
:1023700000220292039269460C4804F00BFE90B9C9
:1023800000210A4805F0A4F80DB05DF804FBFFF742
:102390003BFCD0E7FFF738FCD1E7FFF735FCDBE784
:1023A000FFF732FCE0E7FFF72FFCE9E7FC430024EE
:1023B0000008004000B58BB00023059306930793F7
:1023C000089309930368394A934208D0B3F1804FC8
:1023D00032D0374A93423DD00BB05DF804FB354B09
:1023E000D3F8F02042F00102C3F8F020D3F8F02037
:1023F00002F001020092009AD3F8E02042F01002AD
:10240000C3F8E020D3F8E03003F010030193019B00
:102410004FF400730593022306930123099305A942
:10242000254800F0C1FD002211461B2000F08CFA67
:102430001B2000F0BFFACFE71E4BD3F8E82042F094
:102440000102C3F8E820D3F8E83003F00103029357
:10245000029BC1E7174BD3F8E82042F00402C3F80F
:10246000E820D3F8E82002F004020392039AD3F89C
:10247000E02042F00202C3F8E020D3F8E03003F09D
:1024800002030493049B40230593022306930993BC
:1024900005A90A4800F088FD002211461E2000F020
:1024A00053FA1E2000F086FA96E700BF00000140B4
:1024B000000800400044025800100258000402586E
:1024C00000B589B000230393049305930693079303
:1024D0000268184B9A4202D009B05DF804FB164B13
:1024E000D3F8E82042F00202C3F8E820D3F8E8204D
:1024F00002F002020192019AD3F8E02042F00402B5
:10250000C3F8E020D3F8E03003F004030293029B09
:10251000C023039302230493079303A9074800F001
:1025200043FD002211461D2000F00EFA1D2000F090
:1025300041FAD1E700040040004402580008025864
:1025400000B587B00023019302930393049305938E
:102550000368B3F1804F02D007B05DF804FB0B4B6A
:10256000D3F8E02042F00102C3F8E020D3F8E030D5
:1025700003F001030093009B0123019302220292C6
:10258000059301A9024800F00FFDE5E70044025859
:102590000000025800B58FB000230A930B930C93F0
:1025A0000D93079308930993009301930293039368
:1025B00004930593069321484FF080420260012264
:1025C000426083600222C2600361836104F0C2FA48
:1025D00020BB4FF480530A930AA9184804F048FD21
:1025E000F8B9164804F0E6FAF0B900230793099306
:1025F00007A9124805F0A8F8C8B960230093002283
:1026000001920292049269460C4804F0DBFB88B9FF
:102610000A48FFF795FF0FB05DF804FBFFF7F4FAE7
:10262000D7E7FFF7F1FADCE7FFF7EEFADDE7FFF7B0
:10263000EBFAE2E7FFF7E8FAEAE700BF64430024B9
:1026400008B50368154A934203D0154A934212D045
:1026500008BD027F012AF8D1124B1B68596A124B40
:102660001A88124B43F8221000224FF400611048E0
:1026700000F0AEFDECE7037F012BE9D10D4B1869AB
:10268000094A13880C4921F81300013313800122F1
:102690004FF40061064800F09BFDD9E700000140BF
:1026A00000080040B0430024D4230024D823002491
:1026B00000100258000C02583414002408B51748C2
:1026C000174B03604FF4E133436000238360C36022
:1026D00003610C2242618361C361036243628362CE
:1026E00005F0BAFF70B900210C4806F031F860B966
:1026F00000210A4806F051F850B9084806F009F8D8
:1027000048B908BDFFF780FAEDE7FFF77DFAEFE77C
:10271000FFF77AFAF1E7FFF777FAF2E74844002487
:102720000010014010B5B8B0044600213391349137
:10273000359136913791C02202A808F069F92268D4
:102740001F4B9A4201D038B010BD01220023CDE9C1
:10275000022302A802F0F4FA78BB1A4BD3F8F02057
:1027600042F01002C3F8F020D3F8F02002F010027B
:102770000092009AD3F8E02042F00102C3F8E02072
:10278000D3F8E03003F001030193019B4FF4C063E1
:1027900033930223349300243594369407233793DC
:1027A00033A9094800F000FC22462146252000F00C
:1027B000CBF8252000F0FEF8C5E7FFF725FACCE7B7
:1027C000001001400044025800000258DFF834D0E5
:1027D000FFF7A4FC0C480D490D4A002302E0D45831
:1027E000C4500433C4188C42F9D30A4A0A4C00235B
:1027F00001E013600432A242FBD308F0E5F8FFF7D2
:10280000A9FA70470000082400000024A80A002448
:1028100054100108A80A00240C610024FEE70000FF
:10282000104B1B780BB90120704710B504464FF4CC
:102830007A70B0FBF3F30C4A1068B0FBF3F000F0D1
:10284000C7F868B90F2C01D901200AE000222146FF
:102850004FF0FF3000F078F8044B1C60002000E0DF
:10286000012010BD08000024000000240C000024FA
:1028700010B5032000F056F801F0BAFE0F498B693D
:10288000C3F303230E4AD35C03F01F03D8408B69C4
:1028900003F00F03D35C03F01F0320FA03F3094A8C
:1028A0001360094B18600F20FFF7BAFF10B1012425
:1028B000204610BD0446FFF79DFBF9E7004402588F
:1028C000C00B01080400002400000024034B1B7807
:1028D000034A11680B441360704700BF08000024CE
:1028E000DC440024014B1868704700BFDC4400241E
:1028F00038B50446FFF7F6FF0546B4F1FF3F02D0B6
:10290000044B1B781C44FFF7EDFF401BA042FAD399
:1029100038BD00BF08000024014B1868000C704748
:102920000010005C0649CB6823F4E0631B041B0C19
:10293000000200F4E0600343024A1A43CA60704791
:1029400000ED00E00000FA0500B5174BDB68C3F3AB
:102950000223C3F1070CBCF1040F28BF4FF0040C95
:1029600003F1040EBEF1060F14D9033B4FF0FF3EF6
:102970000EFA0CFC21EA0C0199400EFA03F322EA4C
:1029800003031943002807DB0901C9B2074B195497
:102990005DF804FB0023E9E700F00F000901C9B26C
:1029A000034B1954F4E700BF00ED00E000E400E041
:1029B00014ED00E0002807DB00F01F0240090123AE
:1029C0009340024A42F82030704700BF00E100E027
:1029D0000138B0F1807F0BD24FF0E0235861054AF7
:1029E000F02182F823100020986107221A617047B5
:1029F0000120704700ED00E070B50446FFF772FF5C
:102A0000002C00F09181054694F83530DBB2022BA2
:102A100006D080236365002384F83430012070BD24
:102A200023688C498C4A934218BF8B4230D01832AD
:102A300093422DD0183293422AD01832934227D095
:102A40001832934224D01832934221D01832934244
:102A50001ED002F5567293421AD01832934217D004
:102A60001832934214D01832934211D01832934244
:102A70000ED0183293420BD01832934208D018323D
:102A8000934205D01A6822F00E021A60266809E007
:102A90001A6822F01E021A602268536923F080032C
:102AA0005361266823686B496B4A934218BF8B4277
:102AB00042D0183293423FD0183293423CD0183261
:102AC000934239D01832934236D01832934233D0E1
:102AD0001832934230D002F5567293422CD01832FD
:102AE000934229D01832934226D01832934223D0F1
:102AF0001832934220D0183293421DD0183293429C
:102B00001AD01832934217D0544A934214D0143238
:102B1000934211D0143293420ED0143293420BD010
:102B20001432934208D01432934205D014329342A7
:102B300002D01432934204D1226E136823F48073BE
:102B4000136023684349444A934218BF8B422FD0F5
:102B5000183293422CD01832934229D01832934223
:102B600026D01832934223D01832934220D0183204
:102B700093421DD002F55672934219D018329342F7
:102B800016D01832934213D01832934210D0183214
:102B900093420DD0183293420AD01832934207D094
:102BA0001832934204D01A6822F001021A6003E03E
:102BB0001A6822F001021A60336813F0010F0ED078
:102BC000FFF790FE431B052BF6D9202363650323F3
:102BD00084F83530002384F8343001201FE723685F
:102BE0001C491D4A934218BF8B4239D01832934278
:102BF00036D01832934233D01832934230D0183244
:102C000093422DD0183293422AD01832934227D0C3
:102C100002F55672934223D01832934220D01832D4
:102C200093421DD0183293421AD01832934217D0D3
:102C30001832934214D01832934211D01832934272
:102C40000ED0A16DE36D03F01F02012393404B6092
:102C50000DE000BF10000240280002400854025856
:102C6000A16DE36D03F01F023F2393408B60236847
:102C70002E492F4A934218BF8B4242D018329342BA
:102C80003FD0183293423CD01832934239D0183298
:102C9000934236D01832934233D01832934230D018
:102CA00002F5567293422CD01832934229D0183232
:102CB000934226D01832934223D01832934220D028
:102CC000183293421DD0183293421AD018329342D0
:102CD00017D0184A934214D01432934211D01432B0
:102CE00093420ED0143293420BD01432934208D048
:102CF0001432934205D01432934202D014329342DC
:102D00000BD1636EA26E5A60E36E33B11A6822F47F
:102D100080721A60236F626F5A60012384F8353025
:102D2000002084F834007AE6012078E610000240A2
:102D30002800024008540258002800F0298108B5F4
:102D4000024690F83530DBB2022B03D08023436576
:102D5000012008BD0368904890498B4218BF834208
:102D60000CBF0121002166D03030834263D018307F
:102D7000834260D0183083425DD0183083425AD0ED
:102D80001830834257D01830834254D000F5567023
:102D9000834250D0183083424DD0183083424AD0FD
:102DA0001830834247D01830834244D018308342D1
:102DB00041D0183083423ED0183083423BD019684E
:102DC00021F00E0119601368A0F5956073498B42DC
:102DD00018BF83426AD072498B4267D018318B4248
:102DE00064D018318B4261D018318B425ED01831DB
:102DF0008B425BD018318B4258D001F556718B4213
:102E000054D018318B4251D018318B424ED01831EA
:102E10008B424BD018318B4248D018318B4245D071
:102E200018318B4242D018318B423FD0196821F0C3
:102E3000010119603EE0042082F8350081BB584A48
:102E400093422DD0183293422AD01832934227D081
:102E50001832934224D01832934221D01832934230
:102E60001ED002F5567293421AD01832934217D0F0
:102E70001832934214D01832934211D01832934230
:102E80000ED0183293420BD01832934208D0183229
:102E9000934205D01A6822F001021A60002058E718
:102EA0001A6822F001021A60002052E7196821F026
:102EB000010119601368384838498B4218BF8342B2
:102EC00042D018318B423FD018318B423CD0183160
:102ED0008B4239D018318B4236D018318B4233D0E7
:102EE00018318B4230D001F556718B422CD01831FD
:102EF0008B4229D018318B4226D018318B4223D0F7
:102F000018318B4220D018318B421DD018318B42A2
:102F10001AD018318B4217D022498B4214D0143169
:102F20008B4211D014318B420ED014318B420BD016
:102F300014318B4208D014318B4205D014318B42AE
:102F400002D014318B4217D1116E0B6823F48073B9
:102F50000B60906DD36D03F01F0101238B40436024
:102F6000536E916E5960D36E33B1196821F480713C
:102F70001960136F516F5960012382F835300023B7
:102F800082F83430136D2BB1104698470020E0E6EC
:102F9000012070470020DCE61000024028000240BB
:102FA000400002400854025870B582B000236EE021
:102FB00085685E000324B44025EA0405CC68B4406B
:102FC0002C438460446824EA0C0C4C68C4F300145D
:102FD0009C4044EA0C0444606CE0DD08083550F87D
:102FE000256003F007044FEA840C0F2404FA0CF464
:102FF00026EA040E0C6904FA0CF444EA0E0440F8C4
:1030000025406FE0092400E0002404FA0EF42C436C
:103010000CF1020C6B4D45F82C404FF0B044256884
:10302000D44325EA0206D1F804C01CF4801F01D065
:1030300042EA05064FF0B0452E606D6804EA0506C9
:10304000D1F804C01CF4001F01D042EA05064FF07D
:10305000B0456E60D5F8845004EA0506D1F804C086
:103060001CF4003F01D042EA05064FF0B045C5F818
:103070008460D5F880502C404E6816F4803F01D013
:1030800042EA05044FF0B042C2F8804001330A68BA
:1030900032FA03F400F093804FF0010C0CFA03FCB9
:1030A0001CEA0202F2D04C6804F00304013C012C3B
:1030B0007FF67EAF4C6804F00304032C0CD0C46888
:1030C0005D004FF0030C0CFA05FC24EA0C0C8C6834
:1030D000AC4044EA0C04C4604C6804F00304022CC5
:1030E0003FF47BAF04684FEA430E4FF0030C0CFA39
:1030F0000EFC24EA0C0C4C6804F0030404FA0EF4F1
:1031000044EA0C0404604C6814F4403FBED02E4CDA
:10311000D4F8F45045F00205C4F8F450D4F8F44063
:1031200004F002040194019C4FEA930C0CF1020597
:10313000244C54F8255003F003044FEA840E0F2466
:1031400004FA0EF425EA0405204CA0423FF45CAFDB
:1031500004F58064A04222D004F58064A04220D00F
:1031600004F58064A0421ED004F58064A0421CD007
:1031700004F58064A0421AD004F58064A04218D0FF
:1031800004F58064A04216D004F58064A04214D0F7
:1031900004F58064A0423FF435AF0A2435E70124EA
:1031A00033E7022431E703242FE704242DE7052425
:1031B0002BE7062429E7072427E7082425E702B0A0
:1031C00070BD00BF000400580044025800000258BF
:1031D0000AB181617047090481617047704708B581
:1031E0004FF0B043D3F88830034200D108BD4FF010
:1031F000B043C3F88800FFF7F1FFF7E72DE9F0438C
:1032000083B0D0F8008001EBC10300EB83039A6A1E
:103210005B6A9A4254D807460C469B1A01EBC102DE
:1032200000EB8202D2699A4200D31A4602F10309E6
:103230004FEA990915E006F103094FEA9909BB79AC
:1032400004EBC40507EB8505296A0093B3B2E2B22B
:10325000404605F0FFFD2B6A33442B62AB6A3344D2
:10326000AB6208EB441303F510639B699BB24B45BB
:1032700012D304EBC40207EB8202916A536A9942AB
:103280000AD24BB15B1A04EBC40207EB8202D66987
:103290009E42D0D31E46CEE704EBC40007EB800766
:1032A0007A6ABB6A9A420FD804F00F040123A34044
:1032B000D8F8344824EA0304C8F83448002000E071
:1032C000012003B0BDE8F0830020FAE730B583B0F9
:1032D00000287AD0044690F89534ABB1032384F8E3
:1032E0009534206805F06EFB237C8DF80030231D9B
:1032F0000ECB206805F09CFA58B1022384F895346F
:103300000125284603B030BD80F8943407F098F9C1
:10331000E4E70021206805F0B8FF024608B903463B
:1033200017E0022384F895340125EAE703EBC30193
:1033300004EB8101012048750B75CB8500200876D0
:10334000C861086203EBC30104EB810148620133E9
:10335000DBB220799842E9D816E002EBC20304EB15
:103360008303002183F8551283F8542283F85812FE
:10337000C3F85C12C3F8601202EBC20304EB8303D0
:10338000C3F864120132D2B29042E6D8237C8DF8A1
:103390000030231D0ECB206805F06AFB054658B9A6
:1033A00000236374012384F89534237B012B08D018
:1033B000206805F028FFA4E7022384F8953401254E
:1033C0009FE7204600F072FDF2E7012599E70368C8
:1033D00090F89424012A1AD010B50446012280F8EE
:1033E0009424DA6812F0400F02D0427B012A09D0FF
:1033F000206805F0E1FA206805F0F7FE002084F867
:10340000940410BD9A6B42F480329A63F0E7022074
:103410007047000070B504460D460068066C00EB6E
:10342000411303F530639A68A179012911D0384915
:103430008E4256D03DB905EBC50304EB8303D3F8A8
:103440006432002B5ED0E9B2204607F0A9F90020D3
:1034500070BD12F0080F09D02E498E42F7D912F430
:10346000004FF4D04FF400429A60F0E712F0200FC2
:1034700002D020229A60EAE712F0280FE7D125490E
:103480008E4206D912F4004F03D04FF400429A60E6
:10349000DDE705EBC50204EB8202D2F874121B696A
:1034A000C3F31203CB1AC2F868327DB905EBC5022B
:1034B00004EB8202D2F864226AB105EBC50204EB88
:1034C0008202D2F860120B44C2F86032E9B22046A0
:1034D00007F066F9BBE704F29C42012105F016FFF4
:1034E000F4E712F4004F03D04FF400429A60AEE7C5
:1034F00012F0200F01D020229A60E9B2204607F096
:103500004FF9A4E704F29C42002105F0FFFE9AE780
:103510000A31544F0A30544F38B5044603681D6CC5
:1035200003EB4113D3F8081B0E4A954207D903F564
:10353000306311F4004F02D04FF400429A602046ED
:1035400007F026F9074B9D4202D9A379012B01D040
:10355000002038BD04F29C420121206805F0D6FE0F
:10356000F6E700BF0A30544F90F89434012B0CD08A
:1035700010B50446012380F894344174006805F0C6
:1035800024FE002084F8940410BD0220704738B552
:1035900005468C4611F0800F29D101F00F0E0EEB7D
:1035A000CE04A40004F514740444211D0EEBCE0EC9
:1035B00000EB8E0E00208EF855020CF00F0C81F8F7
:1035C00000C08A600B714A780AB1A1F81AC0022BB8
:1035D0001CD095F89434012B1BD0012385F894342A
:1035E000286805F01BFB002085F8940438BD01F025
:1035F0000F0000EBC001890010312944043100EBB9
:10360000C00005EB800001244475D6E700234B7110
:10361000DFE70220EAE710B504460A4611F0800F02
:1036200020D101F00F0000EBC0039B0003F51473E1
:103630002344191D00EBC00004EB8000002380F838
:10364000553202F00F020A7094F89434012B18D00E
:10365000012384F89434206805F02EFB002084F8C0
:10366000940410BD01F00F0000EBC0039B00103369
:103670002344191D00EBC00004EB800001234375B7
:10368000DFE70220EDE710B5144601F00F0C0CEB5C
:10369000CC01890001F51471014404310CEBCC0E0E
:1036A00000EB8E0ECEF86022CEF864320023CEF806
:1036B00068328EF855328EF854C28279012A04D0CD
:1036C000006805F0DFFB002010BDCEF87042F7E780
:1036D00001F00F0101EBC10100EB8101D1F868029B
:1036E000704710B5144601F00F0C0CEBCC018900AB
:1036F0001031014404310CEBCC0E00EB8E0ECEF8F1
:103700002020CEF824300023CEF8283001238EF874
:1037100015308EF814C082799A4204D0006805F002
:10372000B1FB002010BDCEF83040F7E738B501F00E
:103730000F050279AA4238D304460B4611F0800FD8
:103740001FD101EBC101890001F51471014404315D
:1037500003EBC30300EB8303002283F8552201230C
:103760008B700D7094F89434012B20D0012384F8D1
:103770009434206805F0CEFC85B1002084F89404D0
:1037800038BD05EBC501890010310144043105EB5A
:10379000C50300EB830301225A75E0E704F29C4263
:1037A000A179206805F0B2FDE7E70120E8E70220F3
:1037B000E6E701F00F0302799A4230D310B50446D0
:1037C00011F0800F1ED103EBC301890001F51471C4
:1037D0000144043103EBC30200EB8202002082F8B3
:1037E000550200228A700B7094F89434012B18D083
:1037F000012384F89434206805F0B9FC002084F893
:10380000940410BD03EBC30189001031014404315D
:1038100003EBC30200EB820201205075E1E70120B7
:1038200070470220EDE708B511F0800F0CD101F0D0
:103830000F0101EBC101890001F51471014404314C
:10384000006805F0A9FA08BD01F00F0101EBC10104
:103850008900103101440431F2E72DE9F04F83B0C3
:1038600004460568284605F00CFD10B103B0BDE81C
:10387000F08F0646206805F0D4FC0028F6D005F548
:103880000067BB68C3F30D23C4F8D434206805F087
:10389000C8FC10F0020F04D02268536903F0020341
:1038A0005361206805F0BDFC10F0100F14D02268A1
:1038B000936923F010039361D5F8208008F00F0975
:1038C000C8F34343022B69D0062B00F08D80226899
:1038D000936943F010039361206805F0A2FC10F493
:1038E000002F40F09380206805F09BFC10F4802F9F
:1038F00040F0FC80206805F094FC0028C0F27D8137
:10390000206805F08EFC10F4006F09D0BB6813F03E
:10391000010F40F08A812268536903F40063536108
:10392000206805F07EFC10F0006F15D02268536906
:1039300003F00063536194F8CC34002B40F079819C
:10394000012184F8CC1423685B6DC3F38303C4F8AE
:10395000D034204600F0BEFA206805F062FC10F476
:10396000805F40F06A81206805F05BFC10F4005F26
:1039700040F0B681206805F054FC10F0080F40F0CC
:10398000C781206805F04DFC10F0800F00F0DA814F
:10399000AB6923F08003AB610126C3E147F6F07306
:1039A00018EA030F93D04FEA181B4FEAC90301939B
:1039B00009EBC90A04EB8A0AC8F30A12DAF86012A2
:1039C000284605F07DFBCBF30A0BDAF860325B4446
:1039D000CAF86032019B4B4404EB8303D3F868328E
:1039E0005B44CAF8683272E7082204F29C41284618
:1039F00005F066FBC8F30A1809EBC90204EB820262
:103A0000D2F868324344C2F8683260E7206805F0B3
:103A10000CFC8046B14635E005EB49130122C3F8A2
:103A2000082B49462046FFF7F5FC3CE005EB49131F
:103A30000822C3F8082B49462046FFF76DFD35E004
:103A400009EBC90304EB830393F85732012B41D0F0
:103A500005EB49130222C3F8082B1AF0200F04D0FB
:103A600005EB49132022C3F8082B1AF4005F05D098
:103A700005EB49134FF40052C3F8082B09F1010973
:103A80004FEA5808B8F1000F3FF42DAF18F0010FBE
:103A9000F4D05FFA89FB5946206805F0D6FB8246D0
:103AA00010F0010FB8D11AF0080FBFD11AF0100FA3
:103AB00004D005EB49131022C3F8082B1AF0020FAB
:103AC000CBD06B6913F0800FBAD07B6843F480636E
:103AD0007B60B5E709EBC90304EB8303002283F89D
:103AE00057225946204606F0ABFEB1E7206805F0A4
:103AF000A4FB8046B14625E05946204606F05CFE10
:103B00001AF0080F04D005EB49130822C3F808295E
:103B10001AF0100F04D005EB49131022C3F808293E
:103B20001AF0400F04D005EB49134022C3F80829CE
:103B30001AF0020F40D11AF0800F59D109F1010992
:103B40004FEA5808B8F1000F3FF4D4AE18F0010F57
:103B5000F4D05FFA89FB5946206805F07FFB824666
:103B600010F0010FCCD009F00F03012101FA03F28C
:103B70007B6B23EA02037B6305EB4913C3F8081947
:103B8000A3798B42B8D109EBC90304EB8303D9694C
:103B90001A6A0A441A62B9F1000FADD109EBC903E0
:103BA00004EB83035B6A002BA6D104F29C42012143
:103BB000206805F0ABFB9FE74946284604F008FF64
:103BC00009EBC90304EB8303DB7D012B05D005EB77
:103BD00049130222C3F80829ADE709EBC90304EB36
:103BE00083030022DA755946204606F02FFEEEE7E1
:103BF00049462046FFF702FBA0E77B6823F001035C
:103C00007B6094F8CC34012B08D0204606F012FEDD
:103C10002268536903F00043536171E6002184F880
:103C2000CC14204600F056F9F2E7204606F0EAFDF3
:103C300071E6204606F0E6FD8EE67B6823F0010380
:103C40007B601021206804F0C3FE1AE005EB4613E8
:103C50004FF67F31C3F80819D3F8002922F4001277
:103C6000C3F80029C3F8081BD3F8002B22F4001274
:103C7000C3F8002BD3F8002B42F00062C3F8002BEE
:103C800001362379B342E1D8FB6943F00113FB61AC
:103C9000E37BDBB1D7F8843043F00B03C7F8843003
:103CA0007B6C43F00B037B64D5F8003823F4FE6390
:103CB000C5F8003804F29C42A179206805F026FB83
:103CC0002268536903F4805353614CE67A6942F2E7
:103CD0002B0313437B613B6943F00B033B61E3E739
:103CE000206805F003FB206804F088FFE071266877
:103CF00000F0D4FE0146E279304604F0EBFD2046A8
:103D000006F06BFD2268536903F40053536131E6FA
:103D1000204606F05CFD2268536903F008035361F6
:103D20002FE601362379B3420CD906EBC60304EB28
:103D3000830393F85732012BF3D1F1B22046FFF7FA
:103D400072FDEEE7206805F06CFA10F4801F25D1B3
:103D5000206805F066FA10F4001F59D0012326E010
:103D600001362379B3421BD905EB4613D3F800295A
:103D700006EBC60304EB83031B7E012BF0D1002A64
:103D8000EEDA06EBC60304EB83030122DA7566F074
:103D90007F01C9B22046FFF746FDE1E70126E0E7D3
:103DA0002268536903F480135361D1E70133227908
:103DB0009A4228D905EB4312D2F8001B03EBC30249
:103DC00004EB820292F85822012AEFD10029EDDAA1
:103DD00001F48031D4F8D42402F001029142E5D1FB
:103DE00003EBC30204EB8202012182F85712AA6995
:103DF00042F08002AA616A6912F0800FD6D17B6816
:103E000043F400737B602268536903F40013536129
:103E1000206805F006FA10F0804F10D1206805F0F8
:103E200000FA10F0040F3FF421AD23685D6815F02F
:103E3000040F0DD1226853682B43536016E52046CA
:103E400006F00AFD2268536903F080435361E5E7F9
:103E5000204606F007FDEDE710B40468606A29B952
:103E600040EA0240A062002010BC70478C46A36A62
:103E700000EB1340002308E003F1400104EB810153
:103E8000496800EB11400133DBB20CF1FF318B428A
:103E9000F2D340EA02400CF13F0104EB810148609B
:103EA000E1E703685962002070470000034602689A
:103EB0000121C0F8D814002083F8CC04936943F0A2
:103EC00000639361516D024B0B435365704700BF14
:103ED0000300001070470000134BDB6813F0040F61
:103EE00007D1114BDB6803F0070383421AD001208E
:103EF000704710B50C4AD36823F007031843D0600D
:103F0000FEF7F0FC0446084B5B6813F4005F07D132
:103F1000FEF7E8FC001BB0F57A7FF4D9012000E041
:103F2000002010BD0020704700480258024AD368A4
:103F300043F08073D360704700480258002800F0B7
:103F4000398338B50446036813F0010F25D0944A2D
:103F5000136903F03803926A102B15D0182B0FD079
:103F60006368B3F5803F3FD0002B53D18C4B1A6868
:103F700022F480321A601A6822F480221A6038E033
:103F800002F00302022AEBD1854B1B6813F4003FB9
:103F900003D06368002B00F00F83236813F0020F37
:103FA00000F0A1807E4A1369926A13F038035AD058
:103FB000182B55D0E368002B00F0DE8078490A68A2
:103FC00022F0190213430B60FEF78CFC0546744B7C
:103FD0001B6813F0040F40F0AD80FEF783FC401B1C
:103FE0000228F4D90320EEE26D4A136843F48033CB
:103FF000136063682BB3FEF775FC0546684B1B68BE
:1040000013F4003FC9D1FEF76DFC401B6428F5D9BD
:104010000320D8E2B3F5A02F09D0614B1A6822F42F
:1040200080321A601A6822F480221A60E1E75C4B41
:104030001A6842F480221A601A6842F480321A60C8
:10404000D7E7FEF74FFC0546554B1B6813F4003FBE
:10405000A3D0FEF747FC401B6428F5D90320B2E249
:1040600012F0030FA6D14E4B1B6813F0040F03D0C0
:10407000E368002B00F0A282494A136823F0190379
:10408000E1680B431360FEF72DFC0546444B1B68AB
:1040900013F0040F06D1FEF725FC401B0228F5D9CA
:1040A000032090E2FEF738FC41F20303984212D855
:1040B0002269402A07D03A494B6823F47C3343EA0B
:1040C00002334B600FE0364A536823F47C3343F4E9
:1040D0000033536007E0324A536823F0FE432169FE
:1040E00043EA01635360236813F0100F00F08880E7
:1040F0002B4A136903F03803926A082B56D0182B09
:1041000050D0E369002B00F0B880254A136843F0D3
:1041100080031360FEF7E6FB0546214B1B6813F492
:10412000807F40F08880FEF7DDFB401B0228F4D939
:10413000032048E2FEF7F0FB41F20303984212D855
:104140002269402A07D016494B6823F47C3343EA9E
:1041500002334B60C7E7124A536823F47C3343F4BD
:1041600000335360BFE70E4A536823F0FE432169D2
:1041700043EA01635360B6E7094A136823F0010379
:104180001360FEF7AFFB0546054B1B6813F0040FE9
:10419000A9D0FEF7A7FB401B0228F5D9032012E2A5
:1041A0000044025802F00302012AAAD1A14B1B6865
:1041B00013F4807F03D0E369802B40F00182FEF787
:1041C000ABFB41F20303984212D8226A202A07D09F
:1041D00098494B6823F0F84343EA82634B600FE051
:1041E000944A536823F0F84343F08043536007E058
:1041F000904AD36823F07C53216A43EA0163D36079
:10420000236813F0080F60D06369002B49D0894AF6
:10421000536F43F001035367FEF764FB0546854B7C
:104220005B6F13F0020F50D1FEF75CFB401B0228BE
:10423000F5D90320C7E1FEF76FFB41F20303984273
:1042400012D8226A202A07D07A494B6823F0F84313
:1042500043EA82634B60D3E7764A536823F0F8431E
:1042600043F080435360CBE7724AD36823F07C531A
:10427000216A43EA0163D360C2E76E4A136823F000
:1042800080031360FEF72EFB05466A4B1B6813F490
:10429000807FB5D0FEF726FB401B0228F5D903200E
:1042A00091E1644A536F23F001035367FEF71AFB51
:1042B0000546604B5B6F13F0020F06D0FEF712FB52
:1042C000401B0228F5D903207DE1236813F0200F5D
:1042D00029D0A3699BB1574A136843F480531360F4
:1042E000FEF700FB0546534B1B6813F4005F1AD121
:1042F000FEF7F8FA401B0228F5D9032063E14D4A86
:10430000136823F480531360FEF7ECFA0546494B1B
:104310001B6813F4005F06D0FEF7E4FA401B022886
:10432000F5D903204FE1236813F0040F21D1636A0C
:10433000002B00F047813F4A126902F03802182A28
:1043400000F0EE80022B79D03A4A136823F0807394
:104350001360FEF7C7FA0446364B1B6813F0007F64
:1043600000F0DC80FEF7BEFA001B0228F4D903201F
:1043700029E1314A136843F480731360FEF7B2FAFF
:1043800005462D4B1B6813F4807F06D1FEF7AAFA71
:10439000401B6428F5D9032015E1A368012B0AD03E
:1043A0000BBB244B1A6F22F001021A671A6F22F01E
:1043B00004021A6704E01F4A136F43F001031367F6
:1043C000A36833B3FEF78EFA05461A4B1B6F13F042
:1043D000020FACD1FEF786FA401B41F288339842B7
:1043E000F3D90320EFE0052B09D0124B1A6F22F00E
:1043F00001021A671A6F22F004021A67E0E70D4BF8
:104400001A6F42F004021A671A6F42F001021A672B
:10441000D6E7FEF767FA0546064B1B6F13F0020F4F
:1044200085D0FEF75FFA401B41F288339842F3D9FA
:104430000320C8E00044025800480258694A136843
:1044400023F080731360FEF74DFA0546654B1B6839
:1044500013F0007F06D0FEF745FA401B0228F5D97D
:104460000320B0E05F4B996A5F4A0A40A16AE06AA4
:1044700041EA00110A439A62226B013AC2F3080230
:10448000616B0139490289B20A43A16B0139090400
:1044900001F4FE010A43E16B0139090601F0FE4116
:1044A0000A431A63DA6A22F00102DA62596B4F4A50
:1044B0000A40A16C42EAC1025A63DA6A22F00C0295
:1044C000216C0A43DA62DA6A22F00202616C0A4362
:1044D000DA62DA6A42F48032DA62DA6A42F400328C
:1044E000DA62DA6A42F48022DA62DA6A42F00102BF
:1044F000DA621A6842F080721A60FEF7F3F9044635
:10450000384B1B6813F0007F06D1FEF7EBF9001B58
:104510000228F5D9032056E0002054E0002052E0A4
:10452000304A916A106B012B4ED001F00303A26A4E
:1045300093424BD1C1F30511E36A994248D1C0F3CC
:104540000802236B013B9A4244D1C0F34622636BBD
:10455000013B9A4240D1C0F30642A36B013B9A4211
:104560003CD1C0F30660E36B013B984238D11D4B50
:104570005B6BC3F3CC03A26C9A4201D1002022E012
:10458000184AD36A23F00103D362FEF7ABF905465C
:10459000FEF7A8F9A842FBD0124A516B134B0B400F
:1045A000A16C43EAC1035363D36A43F00103D362AE
:1045B000002008E001207047012004E0012002E013
:1045C000012000E0002038BD0120FCE70120FAE7CF
:1045D0000120F8E70120F6E70120F4E70120F2E7E7
:1045E0000120F0E7004402580CFCFFFF0700FFFF2A
:1045F000F8B57E4B1B6903F03803102B00F0F280F6
:10460000182B10D013B17A4C2046F8BD774B1B689D
:1046100013F0200F00F0E880744B1868C0F3C1005D
:10462000744CC440F0E7714B9D6A05F003059C6A29
:10463000C4F30514D86A00F001005B6BC3F3CC032C
:1046400003FB00F0FBF712FF0646002CDCD0012D27
:1046500076D0022D00F0A4800DB32046FBF706FFB4
:1046600001466548FCF70EF80446604B186BC0F332
:104670000800FBF7FBFE05464FF064513046FBF7A0
:104680004DFF01462846FBF741FE4FF07E51FBF7F8
:104690003DFE01462046FBF741FF044671E0534BC7
:1046A0001B6813F0200F29D0504F3B68C3F3C103A0
:1046B0005048D840FBF7DAFE05462046FBF7D6FE09
:1046C00001462846FBF7DEFF0446386BC0F30800BE
:1046D000FBF7CCFE05464FF064513046FBF71EFF5A
:1046E00001462846FBF712FE4FF07E51FBF70EFE07
:1046F00001462046FBF712FF044642E02046FBF746
:10470000B5FE01463D48FBF7BDFF0446374B186B2D
:10471000C0F30800FBF7AAFE05464FF0645130468F
:10472000FBF7FCFE01462846FBF7F0FD4FF07E51FB
:10473000FBF7ECFD01462046FBF7F0FE044620E0C7
:104740002046FBF793FE01462B48FBF79BFF0446F0
:10475000264B186BC0F30800FBF788FE05464FF0A8
:1047600064513046FBF7DAFE01462846FBF7CEFDE2
:104770004FF07E51FBF7CAFD01462046FBF7CEFE07
:1047800004461A4B1B6BC3F34623581CFBF76EFE03
:1047900001462046FBF776FFFCF710F8044633E7A6
:1047A0002046FBF763FE01461548FBF76BFF044606
:1047B0000E4B186BC0F30800FBF758FE05464FF090
:1047C00064513046FBF7AAFE01462846FBF79EFDE2
:1047D0004FF07E51FBF79AFD01462046FBF79EFE07
:1047E0000446CEE7074C0FE7024C0DE700440258A1
:1047F00000093D000090D0030024744A0024744C4A
:104800000024F44A00127A00002800F0328170B5CA
:104810000D4604469B4B1B6803F00F038B420BD2E3
:10482000984A136823F00F030B431360136803F0D7
:104830000F038B4240F01F81236813F0040F0CD04C
:104840002269914B9B6903F070039A4205D98E4906
:104850008B6923F070031A438A61236813F0080FF1
:104860000CD06269884BDB6903F070039A4205D96A
:104870008549CB6923F070031A43CA61236813F09A
:10488000100F0CD0A269804BDB6903F4E0639A42FD
:1048900005D97D49CB6923F4E0631A43CA612368D3
:1048A00013F0200F0CD0E269774B1B6A03F0700302
:1048B0009A4205D974490B6A23F070031A430A62BD
:1048C000236813F0020F0CD0E2686F4B9B6903F072
:1048D0000F039A4205D96C498B6923F00F031A43E1
:1048E0008A61236813F0010F41D0674A936923F46A
:1048F0007063A1680B4393616368022B0AD0032B9A
:1049000027D0012B2CD0604A126812F0040F06D178
:104910000120ADE0126812F4003F00F0AE805A4969
:104920000A6922F0070213430B61FDF7DBFF06461D
:10493000554B1B6903F038036268B3EBC20F16D006
:10494000FDF7D0FF801B41F288339842F0D9032055
:104950008EE04D4A126812F0007FE0D1012087E01E
:10496000494A126812F4807FD9D1012080E023687F
:1049700013F0020F0CD0E268434B9B6903F00F0366
:104980009A4205D240498B6923F00F031A438A618A
:104990003C4B1B6803F00F03AB420AD9394A13683A
:1049A00023F00F032B431360136803F00F03AB4294
:1049B00065D1236813F0040F0CD02269324B9B6938
:1049C00003F070039A4205D22F498B6923F07003DC
:1049D0001A438A61236813F0080F0CD062692A4BCE
:1049E000DB6903F070039A4205D22749CB6923F0B3
:1049F00070031A43CA61236813F0100F0CD0A26928
:104A0000214BDB6903F4E0639A4205D21E49CB696E
:104A100023F4E0631A43CA61236813F0200F0CD01B
:104A2000E269194B1B6A03F070039A4205D21649DA
:104A30000B6A23F070031A430A62FFF7D9FD12498B
:104A40008B69C3F30323114AD35C03F01F03D840DF
:104A50008B6903F00F03D35C03F01F0320FA03F309
:104A60000B4A13600B4B18600B4B1868FDF7D8FE10
:104A700070BD012070470120FAE70120F8E701200E
:104A8000F6E700BF0020005200440258C00B0108A6
:104A900004000024000000240C00002408B5FFF7E7
:104AA000A7FD0B4A9369C3F303230A49CB5C03F0C8
:104AB0001F0320FA03F3926902F00F02885C00F0F2
:104AC0001F0023FA00F0044A1060044A136008BD76
:104AD00000440258C00B0108040000240000002418
:104AE00008B5FFF7DBFF054BDB69C3F30213044A8C
:104AF000D35C03F01F03D84008BD00BF0044025838
:104B0000C00B010808B5FFF7C9FF054BDB69C3F30C
:104B10000223044AD35C03F01F03D84008BD00BF42
:104B200000440258C00B0108404B9B6A03F003038A
:104B3000032B79D070B505460E463C4A136823F026
:104B400080631360FDF7CEFE0446384B1B6813F0FC
:104B5000006F06D0FDF7C6FE031B022BF5D903201C
:104B600070BD324B9A6A22F47C32296842EA0132E3
:104B70009A626A68013AC2F30802A96801394902D7
:104B800089B20A43E9680139090401F4FE010A43C4
:104B900029690139090601F0FE410A439A63DA6A7C
:104BA00022F0C00269690A43DA62DA6A22F020025E
:104BB000A9690A43DA62DA6A22F01002DA62D96B72
:104BC0001B4A0A40E96942EAC102DA63DA6A42F042
:104BD0001002DA62C6B91A46DB6A43F40023D362D4
:104BE000124A136843F080631360FDF77BFE0446AE
:104BF0000E4B1B6813F0006F14D1FDF773FE001B02
:104C00000228F5D90320ABE7012E05D0074AD36A65
:104C100043F40013D362E3E7044AD36A43F48013F6
:104C2000D362DDE700209BE7012070470044025873
:104C30000700FFFF404B9B6A03F00303032B79D06F
:104C400070B505460E463C4A136823F08053136046
:104C5000FDF748FE0446384B1B6813F0005F06D092
:104C6000FDF740FE031B022BF5D9032070BD324B2C
:104C70009A6A22F07C72296842EA01529A626A6852
:104C8000013AC2F30802A9680139490289B20A430C
:104C9000E9680139090401F4FE010A43296901396F
:104CA000090601F0FE410A431A64DA6A22F44062FE
:104CB00069690A43DA62DA6A22F40072A9690A436E
:104CC000DA62DA6A22F48072DA62596C1B4A0A40AC
:104CD000E96942EAC1025A64DA6A42F48072DA622D
:104CE000C6B91A46DB6A43F48003D362124A1368DA
:104CF00043F080531360FDF7F5FD04460E4B1B682F
:104D000013F0005F14D1FDF7EDFD001B0228F5D96B
:104D10000320ABE7012E05D0074AD36A43F0807326
:104D2000D362E3E7044AD36A43F40003D362DDE7C6
:104D300000209BE701207047004402580700FFFF56
:104D4000F8B50446036813F0006F30D0836EB3F5F6
:104D5000001F26D00ED8EBB1B3F5801F07D102217A
:104D60000830FFF7E1FE054645B12E4621E0012659
:104D700035461EE0B3F5401F09D10025984A136D52
:104D800023F44013A16E0B431365002611E00126A6
:104D900035460EE0924AD36A43F40033D3620025CD
:104DA000ECE702212830FFF745FF0546DCE7002647
:104DB0003546236813F4807F14D0A36D042B32D8BA
:104DC000DFE803F003232A080800854AD36A43F486
:104DD0000033D36255BB824A136D23F00703A16DE4
:104DE0000B431365236813F4007F31D0E36D802BF0
:104DF0004CD020D8002B43D0402B19D1002104F1F6
:104E00000800FFF791FE05461AE0002104F10800B2
:104E1000FFF78AFE0546DDE7002104F12800FFF7D1
:104E200009FF0546D6E701263546DBE72E46D9E7DA
:104E3000012635460CE0C02B02D0B3F5807F1CD193
:104E40005DBB674A136D23F4E073E16D0B4313659B
:104E5000236813F4806F46D0D4F8A830B3F5800FE0
:104E600039D01FD88BB3B3F5001F18D1002104F13E
:104E70000800FFF759FE05461AE001263546E7E728
:104E8000574AD36A43F40033D362D9E7002104F1CF
:104E90002800FFF7CFFE0546D2E72E46D8E70126C9
:104EA000354620E0B3F5C00F02D0B3F5000F09D1AD
:104EB000C5B94B4A936D23F46003D4F8A8100B4393
:104EC000936510E0012635460DE0454AD36A43F468
:104ED0000033D362ECE7002104F12800FFF7AAFEBB
:104EE0000546E5E72E46236813F4006F24D0D4F876
:104EF000AC30B3F1007F42D00ED8002B39D0B3F1E3
:104F0000807F06D1002104F10800FFF70DFE054661
:104F100008E0012635460FE0B3F1407F02D0B3F13F
:104F2000806F23D1002D31D12D4A936D23F0E063A2
:104F3000D4F8AC100B439365236813F0007F2ED098
:104F4000E36C202B40D026D833B1102B20D1244A3B
:104F5000D36A43F40033D362002D3CD1204AD36C92
:104F600023F03003E16C0B43D36418E0012635468F
:104F7000E2E71B4AD36A43F40033D362D2E700214D
:104F800004F12800FFF756FE0546CBE72E46D3E78F
:104F90000126354603E0302BDED001263546236856
:104FA00013F4805F2DD0236EB3F5005F4FD019D876
:104FB000002B46D0B3F5805F0FD1002104F108002B
:104FC000FFF7B2FD054613E0022104F10800FFF7E8
:104FD000ABFD0546C0E72E46E1E70126354610E069
:104FE00000440258B3F5405F02D0B3F5804F25D19D
:104FF000002D33D1774A136D23F4E043216E0B4328
:105000001365236813F4005F38D0636EB3F5003F77
:1050100053D028D843B1B3F5803F21D1012104F109
:105020000800FFF781FD0546002D4DD1694A136D3B
:1050300023F4E023616E0B4313651FE00126354620
:10504000DFE7644AD36A43F40033D362D0E7002138
:1050500004F12800FFF7EEFD0546C9E72E46D0E72C
:10506000012635460AE0B3F5802FDDD0B3F5A02F39
:10507000DAD0B3F5403FD7D001263546236813F484
:10508000804F31D0D4F8B030B3F1005F45D020D894
:1050900043B1B3F1805F19D1012104F10800FFF79A
:1050A00043FD0546002D3FD14A4A936D23F0E0436E
:1050B000D4F8B0100B43936516E0012104F12800E9
:1050C000FFF7B8FD0546AFE72E46D7E70126354680
:1050D0000AE0B3F1804FE5D0B3F1A04FE2D0B3F1D5
:1050E000405FDFD001263546236813F4004F09D016
:1050F000236FB3F1805F19D0B3F1005F24D0D3B137
:1051000001263546236813F0807F33D0A36C032B30
:105110005BD8DFE803F027225327012104F12800A0
:10512000FFF788FD0546BDE72E46DDE7294AD36A2D
:1051300043F40033D36275B9264A136D23F040530C
:10514000216F0B431365DDE7012104F10800FFF730
:10515000EBFC0546EFE72E46D4E71E4AD36A43F43C
:105160000033D362A5BB1B4AD36C23F00303A16CAD
:105170000B43D364236813F4800F2DD1236813F0FD
:10518000010F00F0A580E36F282B00F29F80DFE87D
:1051900003F08D9D9D9D9D9D9D9D879D9D9D9D9DAC
:1051A0009D9D969D9D9D9D9D9D9D8D9D9D9D9D9D46
:1051B0009D9D8D9D9D9D9D9D9D9D8D00022104F138
:1051C0000800FFF7B1FC0546CCE701263546D1E7DC
:1051D0002E46CFE700440258914A136843F4807387
:1051E0001360FDF77FFB07468D4B1B6813F4807F30
:1051F00005D1FDF777FBC01B6428F5D90325002DE9
:105200004AD1884B1B6FD4F8B420534013F4407F2D
:105210000CD0844B1A6F22F44072196F41F4803124
:105220001967196F21F4803119671A67D4F8B430FF
:10523000B3F5807F15D08DBBD4F8B43003F4407241
:10524000B2F5407F1ED0774A136923F47C53136173
:1052500074490B6FD4F8B420C2F30B0213430B67ED
:105260008CE7FDF73FFB07466E4B1B6F13F0020FF9
:10527000E1D1FDF737FBC01B41F288339842F3D9E7
:105280000325D8E76748026922F47C52664901EA9F
:10529000131313430361DBE72E466FE72E466DE7DA
:1052A000012104F10800FFF73FFC0546E5B95D4A1E
:1052B000536D23F03803E16F0B43536508E0012180
:1052C00004F12800FFF7B6FC0546EFE70126354656
:1052D000236813F0020F17D0A36F052B28D8DFE83F
:1052E00003F00B05200B0B0B2E46F1E7012104F117
:1052F0000800FFF719FC0546EDB94A4A536D23F043
:105300000703A16F0B435365236813F0040F23D0E9
:10531000D4F89430052B45D8DFE803F0150F3D1580
:105320001515012104F12800FFF784FC0546E3E789
:1053300001263546E8E72E46E6E7012104F108009C
:10534000FFF7F2FB054685BB364A936D23F0070352
:10535000D4F894100B439365236813F0200F34D0D6
:10536000D4F89030B3F1005F4ED023D843B1B3F1FD
:10537000805F1CD1002104F10800FFF7D5FB054632
:10538000002D48D1274A536D23F0E043D4F8901004
:105390000B43536519E0012104F12800FFF74AFC93
:1053A0000546D0E701263546D6E72E46D4E7012646
:1053B00035460AE0B3F1804FE2D0B3F1A04FDFD021
:1053C000B3F1405FDCD001263546236813F0400F6F
:1053D00037D0D4F89C30B3F5006F53D026D843B102
:1053E000B3F5806F19D1002104F10800FFF79CFB91
:1053F0000546002D4DD10B4A936D23F4E053D4F8AC
:105400009C100B4393651CE0022104F12800FFF778
:1054100011FC0546B4E72E46D7E70126354610E0D5
:105420000048025800440258CFFFFF00B3F5805FE8
:10543000DFD0B3F5A05FDCD0B3F5406FD9D0012643
:105440003546236813F0800F33D0D4F8A030B3F57D
:10545000804F00F0A38021D843B1B3F5005F1AD18B
:10546000002104F10800FFF75FFB0546002D40F026
:105470009C80814A936D23F46043D4F8A0100B43C1
:10548000936516E0022104F12800FFF7D3FB0546DF
:10549000AFE72E46D5E7012635460AE0B3F5004FC3
:1054A000E4D0B3F5204FE1D0B3F5C04FDED00126F4
:1054B0003546236813F0080F0CD0D4F88430B3F5C8
:1054C000805F74D06C4A536D23F44053D4F8841039
:1054D0000B435365236813F0100F0CD0D4F89830A9
:1054E000B3F5807F6CD0644A936D23F44073D4F895
:1054F00098100B439365236813F4002F0BD0D4F856
:10550000A430B3F5803F74D0B3F5003F67D0002BD3
:105510005FD001263546236813F4802F0CD0D4F8D1
:105520008830B3F5001F7CD0B3F5401F6FD0B3F5C2
:10553000801F67D001263546236813F4803F08D0CA
:10554000236D002B76D0B3F5803F00F081800126DB
:105550003546236813F0005F40F08380236813F41E
:10556000003F00F08E80D4F88030B3F5807F00F0EB
:10557000EC8040F28380B3F5007F03D0B3F5407F29
:1055800040F0E180002D40F0E6803B4A536D23F46B
:105590004073D4F880100B43536572E0022104F18C
:1055A0002800FFF747FB054660E72E4681E702210A
:1055B00004F12800FFF73EFB002883D0012681E795
:1055C000022104F12800FFF735FB00288BD00126CB
:1055D00089E7002104F10800FFF7A6FA05467DB926
:1055E000254A936D23F44033D4F8A4100B439365FC
:1055F00091E7022104F12800FFF71CFB0546EEE7C6
:105600002E4688E71C4AD36A43F40033D3627DB93F
:10561000194A536D23F44013D4F888100B43536593
:105620008AE7012104F12800FFF704FB0546EEE7B5
:105630002E4681E7104AD36A43F40033D36275B92A
:105640000D4AD36C23F48033216D0B43D36480E780
:10565000022104F10800FFF767FA0546EFE72E463E
:1056600077E7022104F12800FFF7E4FA00283FF46D
:1056700075AF012672E700BF00440258002B81D0AD
:105680000126236813F4801F06D04F4A136D23F0C0
:105690000043616F0B431365236813F0805F07D0ED
:1056A000494A136923F48043D4F8B8100B431361BB
:1056B000236813F4001F06D0434A136D23F0807350
:1056C000E16E0B431365236813F0804F09D03E4B06
:1056D0001A6922F400421A611A69D4F8BC100A430C
:1056E0001A612368002B06DA374AD36C23F0405343
:1056F000616D0B43D364236813F4000F07D0324A63
:10570000536D23F44003D4F88C100B435365636846
:1057100013F0010F21D1636813F0020F26D16368E3
:1057200013F0040F2BD1636813F0080F30D16368B6
:1057300013F0100F35D1636813F0200F3AD106B182
:1057400001263046F8BD01269BE71F4AD36A43F481
:105750000033D36216E72E4693E7002104F10800D8
:10576000FFF7E2F90028D6D00646D4E7012104F17C
:105770000800FFF7D9F90028D1D00646CFE702216B
:1057800004F10800FFF7D0F90028CCD00646CAE79C
:10579000002104F12800FFF74DFA0028C7D0064683
:1057A000C5E7012104F12800FFF744FA0028C2D020
:1057B0000646C0E7022104F12800FFF73BFA002863
:1057C000BDD00646BBE700BF0044025808B5FFF74E
:1057D00065F9054B1B6AC3F30213044AD35C03F05B
:1057E0001F03D84008BD00BF00440258C00B010889
:1057F0002DE9F0410446864B9D6A9E6AC6F3053644
:10580000D86AC0F30010DB6BC3F3CC0303FB00F0DA
:10581000FAF72CFE002E00F0F58005F00305074690
:10582000012D79D0022D00F0CB800DB33046FAF770
:105830001DFE01467748FAF725FF0546744B986B25
:10584000C0F30800FAF712FE06464FF064513846DE
:10585000FAF764FE01463046FAF758FD4FF07E51E4
:10586000FAF754FD01462846FAF758FE054674E05B
:10587000674B1B6813F0200F2CD0DFF89481D8F809
:105880000030C3F3C1036448D840FAF7EFFD054682
:105890003046FAF7EBFD01462846FAF7F3FE0546D7
:1058A000D8F83800C0F30800FAF7E0FD06464FF0DC
:1058B00064513846FAF732FE01463046FAF726FDC3
:1058C0004FF07E51FAF722FD01462846FAF726FEF0
:1058D000054642E03046FAF7C9FD01464F48FAF75F
:1058E000D1FE05464A4B986BC0F30800FAF7BEFD9F
:1058F00006464FF064513846FAF710FE014630462E
:10590000FAF704FD4FF07E51FAF700FD01462846F4
:10591000FAF704FE054620E03046FAF7A7FD0146F7
:105920003C48FAF7AFFE0546394B986BC0F30800C8
:10593000FAF79CFD06464FF064513846FAF7EEFD43
:1059400001463046FAF7E2FC4FF07E51FAF7DEFCF2
:1059500001462846FAF7E2FD05462D4EB06BC0F32E
:105960004620FAF783FD4FF07E51FAF7CFFC01464F
:105970002846FAF787FEFAF721FF2060B06BC0F3E4
:105980000640FAF773FD4FF07E51FAF7BFFC01466F
:105990002846FAF777FEFAF711FF6060B06BC0F3A4
:1059A0000660FAF763FD4FF07E51FAF7AFFC01464F
:1059B0002846FAF767FEFAF701FFA060BDE8F0811C
:1059C0003046FAF753FD01461548FAF75BFE0546E7
:1059D0000F4B986BC0F30800FAF748FD06464FF0EE
:1059E00064513846FAF79AFD01463046FAF78EFCC4
:1059F0004FF07E51FAF78AFC01462846FAF78EFDF1
:105A00000546AAE7002323606360A360D6E700BFD2
:105A1000004402580024744A0090D0030024744CBF
:105A20000024F44A2DE9F0410446864B9D6A9E6AA3
:105A3000C6F30556D86AC0F300205B6CC3F3CC03F1
:105A400003FB00F0FAF712FD002E00F0F58005F0E0
:105A500003050746012D79D0022D00F0CB800DB350
:105A60003046FAF703FD01467748FAF70BFE054684
:105A7000744B186CC0F30800FAF7F8FC06464FF0B8
:105A800064513846FAF74AFD01463046FAF73EFCC3
:105A90004FF07E51FAF73AFC01462846FAF73EFDF0
:105AA000054674E0674B1B6813F0200F2CD0DFF81D
:105AB0009481D8F80030C3F3C1036448D840FAF7A2
:105AC000D5FC05463046FAF7D1FC01462846FAF7E0
:105AD000D9FD0546D8F84000C0F30800FAF7C6FC27
:105AE00006464FF064513846FAF718FD0146304635
:105AF000FAF70CFC4FF07E51FAF708FC01462846F5
