:020000040800F2
:10000000000008243D130008E10E0008E30E00087C
:10001000E50E0008E70E0008E90E000800000000E9
:10002000000000000000000000000000EB0E0008CF
:10003000ED0E000800000000EF0E0008F10E0008B1
:100040008D1300088D1300088D1300088D13000810
:100050008D1300088D1300088D130008F90E000899
:100060008D1300088D1300088D1300088D130008F0
:100070008D1300088D1300088D1300088D130008E0
:100080008D1300088D1300088D1300088D130008D0
:100090008D1300088D1300088D1300088D130008C0
:1000A0008D1300088D1300088D1300088D130008B0
:1000B0008D130008050F00088D1300088D1300082C
:1000C0008D1300088D1300088D1300088D13000890
:1000D0008D130008150F00088D1300088D130008FC
:1000E0008D1300088D130008000000008D13000818
:1000F0008D1300088D1300088D1300088D13000860
:100100008D1300088D1300088D1300088D1300084F
:100110008D1300088D1300088D1300088D1300083F
:100120008D1300088D1300088D1300088D1300082F
:100130008D1300088D1300088D1300088D1300081F
:1001400000000000000000000000000000000000AF
:100150008D1300088D1300088D1300088D130008FF
:100160008D1300088D130008250F0008350F0008B7
:100170008D130008450F00088D1300088D1300082B
:100180008D1300088D1300088D1300088D130008CF
:100190008D1300088D1300088D1300088D130008BF
:1001A0008D1300088D1300088D1300088D130008AF
:1001B0008D1300088D1300088D1300088D1300089F
:1001C0008D1300088D1300088D1300088D1300088F
:1001D0008D1300088D1300088D1300088D1300087F
:1001E0008D1300088D1300088D1300088D1300086F
:1001F0008D1300088D1300088D1300088D1300085F
:100200008D1300088D1300088D1300088D1300084E
:100210008D1300088D1300088D1300088D1300083E
:100220008D1300088D1300088D13000800000000D6
:100230008D1300088D130008000000008D130008C6
:100240008D1300088D1300088D1300088D1300080E
:100250008D1300088D1300088D1300088D130008FE
:100260008D1300088D1300088D1300088D130008EE
:100270008D1300088D1300088D1300080000000086
:100280008D1300088D1300088D1300080000000076
:08029000000000008D130008BE
:1002980010B5054C237833B9044B13B10448AFF3B8
:1002A80000800123237010BD2C05002400000000ED
:1002B8008C85000808B5034B1BB103490348AFF30D
:1002C800008008BD00000000300500248C8500086F
:1002D80080F0004002E000BF81F0004142001FBFF3
:1002E8005FEA410392EA030F7FEA226C7FEA236CFC
:1002F8006AD04FEA1262D2EB1363C1BFD2184140F1
:1003080048404140B8BF5B42192B88BF704710F086
:10031800004F40F4000020F07F4018BF404211F029
:10032800004F41F4000121F07F4118BF494292EA91
:10033800030F3FD0A2F1010241FA03FC10EB0C00BD
:10034800C3F1200301FA03F100F0004302D549424A
:1003580060EB4000B0F5000F13D3B0F1807F06D3F7
:1003680040084FEA310102F10102FE2A51D2B1F1EF
:10037800004F40EBC25008BF20F0010040EA0300E4
:100388007047490040EB0000013A28BFB0F5000F64
:10039800EDD2B0FA80FCACF1080CB2EB0C0200FA1A
:1003A8000CF0AABF00EBC25052421843BCBFD04069
:1003B8001843704792F0000F81F4000106BF80F4E3
:1003C80000000132013BB5E74FEA41037FEA226CA6
:1003D80018BF7FEA236C21D092EA030F04D092F071
:1003E800000F08BF0846704790EA010F1CBF0020A5
:1003F800704712F07F4F04D1400028BF40F0004002
:10040800704712F100723CBF00F50000704700F021
:10041800004343F0FE4040F4000070477FEA226248
:1004280016BF08467FEA23630146420206BF5FEA19
:10043800412390EA010F40F4800070474FF0000319
:1004480004E000BF10F0004348BF40425FEA000CE0
:1004580008BF704743F0964301464FF000001CE088
:1004680050EA010208BF70474FF000030AE000BFDE
:1004780050EA010208BF704711F0004302D540421C
:1004880061EB41015FEA010C02BF8446014600208E
:1004980043F0B64308BFA3F18053A3F50003BCFAA9
:1004A8008CF2083AA3EBC25310DB01FA02FC634456
:1004B80000FA02FCC2F12002BCF1004F20FA02F25D
:1004C80043EB020008BF20F00100704702F1200250
:1004D80001FA02FCC2F1200250EA4C0021FA02F2B1
:1004E80043EB020008BF20EADC7070474FF0FF0CB6
:1004F8001CEAD0521EBF1CEAD15392EA0C0F93EAB1
:100508000C0F6FD01A4480EA010C400218BF5FEA52
:1005180041211ED04FF0006343EA501043EA5111C5
:10052800A0FB01310CF00040B1F5000F3EBF4900BF
:1005380041EAD3715B0040EA010062F17F02FD2AC3
:100548001DD8B3F1004F40EBC25008BF20F00100A6
:10055800704790F0000F0CF0004C08BF49024CEABD
:10056800502040EA51207F3AC2BFD2F1FF0340EA4F
:10057800C250704740F400004FF00003013A5DDCC0
:1005880012F1190FDCBF00F000407047C2F1000201
:10059800410021FA02F1C2F1200200FA02FC5FEAEE
:1005A800310040F1000053EA4C0308BF20EADC7038
:1005B800704792F0000F00F0004C02BF400010F4AA
:1005C800000F013AF9D040EA0C0093F0000F01F057
:1005D800004C02BF490011F4000F013BF9D041EA79
:1005E8000C018FE70CEAD15392EA0C0F18BF93EA7B
:1005F8000C0F0AD030F0004C18BF31F0004CD8D1A5
:1006080080EA010000F00040704790F0000F17BF2B
:1006180090F0004F084691F0000F91F0004F14D071
:1006280092EA0C0F01D142020FD193EA0C0F03D1C9
:100638004B0218BF084608D180EA010000F00040CC
:1006480040F0FE4040F40000704740F0FE4040F4A7
:10065800400070474FF0FF0C1CEAD0521EBF1CEA46
:10066800D15392EA0C0F93EA0C0F69D0A2EB030264
:1006780080EA010C49024FEA402037D04FF08053FE
:1006880043EA111143EA10130CF000408B4238BFC3
:100698005B0042F17D024FF4000C8B4224BF5B1AD1
:1006A80040EA0C00B3EB510F24BFA3EB510340EA1F
:1006B8005C00B3EB910F24BFA3EB910340EA9C00CD
:1006C800B3EBD10F24BFA3EBD10340EADC001B013D
:1006D80018BF5FEA1C1CE0D1FD2A3FF650AF8B42E1
:1006E80040EBC25008BF20F0010070470CF0004CEE
:1006F8004CEA50207F32C2BFD2F1FF0340EAC25019
:10070800704740F400004FF00003013A37E792F0D9
:10071800000F00F0004C02BF400010F4000F013A37
:10072800F9D040EA0C0093F0000F01F0004C02BF32
:10073800490011F4000F013BF9D041EA0C0195E79B
:100748000CEAD15392EA0C0F08D142027FF47DAF34
:1007580093EA0C0F7FF470AF084676E793EA0C0F24
:1007680004D14B023FF44CAF08466EE730F0004C22
:1007780018BF31F0004CCAD130F000427FF45CAFB2
:1007880031F000437FF43CAF5FE700BF42000ED278
:10079800B2F1FE4F0BD34FF09E03B3EB126209D4B4
:1007A8004FEA002343F0004323FA02F070474FF06A
:1007B8000000704712F1610F01D1420202D14FF0DF
:1007C800FF3070474FF00000704700BF53B94AB977
:1007D800002908BF00281CBF4FF0FF314FF0FF3041
:1007E80000F074B9ADF1080C6DE904CE00F006F81C
:1007F800DDF804E0DDE9022304B070472DE9F04795
:10080800089E0D4604468846002B4DD18A429446E0
:1008180068D9B2FA82F252B101FA02F3C2F12001A8
:1008280020FA01F10CFA02FC41EA030894404FEA6D
:100838001C45210CB8FBF5FE1FFA8CF705FB1E833F
:1008480041EA03430EFB07F199420BD91CEB030362
:100858000EF1FF3080F01E81994240F21B81AEF10B
:10086800020E63445B1AA4B2B3FBF5F005FB103328
:1008780044EA034400FB07F7A7420AD91CEB040427
:1008880000F1FF3380F00881A74240F205816444FB
:100898000238E41B40EA0E4000211EB1D440002378
:1008A800C6E90043BDE8F0878B4208D9002E00F066
:1008B800EE800021C6E900050846BDE8F087B3FAD6
:1008C80083F100294AD1AB4202D3824200F2F98077
:1008D800841A65EB030301209846002EE2D0C6E98E
:1008E8000048DFE702B9FFDEB2FA82F2002A40F0E0
:1008F8009180A1EB0C054FEA1C471FFA8CFE0121E1
:10090800B5FBF7F307FB1350250C45EA00450EFB32
:1009180003F0A84208D91CEB050503F1FF3802D201
:10092800A84200F2CB8043462D1AA4B2B5FBF7F0DB
:1009380007FB105544EA05440EFB00FEA64508D9FE
:100948001CEB040400F1FF3502D2A64500F2BB807F
:100958002846A4EB0E0440EA03409EE7C1F12007B5
:100968008B4022FA07FC4CEA030C20FA07F405FA3C
:1009780001F31C43FD404FEA1C4900FA01F3B5FBA3
:10098800F9F8200C1FFA8CFE09FB185540EA0545BA
:1009980008FB0EF0A84202FA01F20BD91CEB050580
:1009A80008F1FF3A80F08880A84240F28580A8F1DB
:1009B800020865442D1AA4B2B5FBF9F009FB1055DD
:1009C80044EA054500FB0EFEAE4508D91CEB0505BB
:1009D80000F1FF346CD2AE456AD90238654440EA6A
:1009E8000840A0FB0294A5EB0E05A542C846A64602
:1009F80056D353D05EB1B3EB080265EB0E0505FA8A
:100A080007F722FA01F3CD401F43C6E9007500211C
:100A1800BDE8F087C2F1200320FA03F10CFA02FCCA
:100A280025FA03F395400D434FEA1C471FFA8CFE45
:100A3800B3FBF7F107FB11302B0C43EA004301FB32
:100A48000EF0984204FA02F408D91CEB030301F1F2
:100A5800FF382FD298422DD9023963441B1AADB200
:100A6800B3FBF7F007FB103345EA034500FB0EF331
:100A7800AB4208D91CEB050500F1FF3816D2AB4292
:100A880014D902386544ED1A40EA014138E7314685
:100A9800304607E78646E5E61846FAE64B45A9D20A
:100AA800B9EB020864EB0C0E0138A3E74046EAE70D
:100AB800204694E74146D1E7D0467BE7023B6544B0
:100AC80032E7084609E76444023842E7704700BF46
:100AD8002DE9F0418CB000240794089409940A94F5
:100AE8000B94484BD3F8E02042F01002C3F8E02002
:100AF800D3F8E02002F010020192019AD3F8E02026
:100B080042F08002C3F8E020D3F8E02002F080022F
:100B18000292029AD3F8E02042F00402C3F8E020DF
:100B2800D3F8E02002F004020392039AD3F8E020FD
:100B380042F00102C3F8E020D3F8E02002F00102FD
:100B48000492049AD3F8E02042F00202C3F8E020AD
:100B5800D3F8E02002F002020592059AD3F8E020CB
:100B680042F00802C3F8E020D3F8E03003F00803AD
:100B78000693069BDFF89080224642F62001404605
:100B880001F0DAF8214E22461021304601F0D4F85F
:100B98001F4F22464FF6FF71384601F0CDF842F656
:100BA800200307930125089509940A9407A940464C
:100BB80000F0AEFF022307934FF4881308930994BB
:100BC80007A9304600F0A4FF10230793089509945D
:100BD8000A9407A9304600F09BFF4FF6FF7307936E
:100BE800089509940A9407A9384600F091FF22460F
:100BF8002146072000F05CFC072000F08FFC0CB0B9
:100C0800BDE8F08100440258001002580000025864
:100C1800000C025872B6FEE700B59FB04C220021C6
:100C28000BA807F0EDFB2022002103A807F0E8FB42
:100C3800022001F005FF002300933B4BDA6A22F003
:100C48000102DA62DB6A03F001030093374B9A6909
:100C580042F440429A619B6903F440430093009B2D
:100C6800324B9B6913F4005FFAD0314BD3F8F42070
:100C780042F00202C3F8F420D3F8F43003F0020380
:100C88000193019B00230293284B9A6942F4404246
:100C98009A619B6903F440430293234BDA6A42F05A
:100CA8000102DA62DB6A03F001030293029B1F4B25
:100CB8009B6913F4005FFAD023230B934FF480331E
:100CC8000C9301230E9340220F9211930223149345
:100CD80015931693F0221792189319931A930823D1
:100CE8001B9300231C931D930BA801F0DBFEB0B9E6
:100CF8003F230393032304930023059308230693B8
:100D08004023079308934FF4806209920A930421C1
:100D180003A802F02DFB20B91FB05DF804FBFFF714
:100D280079FFFFF777FF00BF00040058004802581A
:100D38000044025800B5B1B0C0220021684607F04F
:100D48005FFB4FF000420023CDE90023684602F024
:100D5800ABFD10B931B05DF804FBFFF75BFF08B5D8
:100D680000F03AFBFFF758FFFFF7E4FFFFF7B0FE8C
:100D780000F00AF800F000FA00F046F900F052FA24
:100D880007F06EF8FEE7000008B51448144B03603E
:100D98004FF4800343604FF4C02383600723C3608C
:100DA8000023036143614FF080628261C361036283
:100DB80043628362C3624FF0804242638363C363CA
:100DC800036443648364C36403654365836503F014
:100DD800FFFC00B908BDFFF71DFFFBE7480500242D
:100DE8000030014070B5BAB0044600213591369103
:100DF800379138913991C02204A807F001FB226885
:100E0800284B9A4201D03AB070BD4FF4805200236B
:100E1800CDE904234FF480431C9304A802F044FD59
:100E280000283CD1204BD3F8F02042F48052C3F87C
:100E3800F020D3F8F02002F480520192019AD3F8FE
:100E4800E02042F00102C3F8E020D3F8E02002F0ED
:100E580001020292029AD3F8E02042F00202C3F89B
:100E6800E020D3F8E03003F002030393039B8023D0
:100E780035930226369600243794389405253995FB
:100E880035A90A4800F044FE08233593369637946E
:100E98003894399535A9064800F03AFEB3E7FFF7CC
:100EA800B9FEBFE700300140004402580000025874
:100EB8000004025882B0074BD3F8F42042F0020233
:100EC800C3F8F420D3F8F43003F002030193019B34
:100ED80002B0704700440258FEE7FEE7FEE7FEE76F
:100EE800FEE770477047704708B500F0A3FA08BDE1
:100EF80008B5022000F027FF08BD000008B5024829
:100F080003F0B0FE08BD00BF1C06002408B5024867
:100F180004F0DEFA08BD00BF6806002408B50248E0
:100F280001F04FFA08BD00BFE01B002408B50248D5
:100F380001F047FA08BD00BFE01B002408B50248CD
:100F480001F03FFA08BD00BFE01B0024244B1B68DA
:100F580003F00F03062B06D8214A136823F00F036A
:100F680043F0070313601F4B1A6842F001021A602E
:100F780000221A6119681C4A0A401A60184B1B683B
:100F880013F0080F06D0164A136823F00F0343F036
:100F980007031360134B00229A61DA611A6213493E
:100FA80099621349D962134919635A639963DA63D9
:100FB80019645A64196821F4802119601A660E4B65
:100FC8001A680E4B1340B3F1005F03D20C4B012299
:100FD800C3F808210B4B43F2D2021A60704700BFD6
:100FE80000200052004402587FEDF6EA0002020297
:100FF8000000FF01800201010010005C0000FFFFFB
:10100800008000510040005200B58DB0242200211C
:1010180003A807F0F5F900230093019302931348FE
:10102800134A02600322426083604FF6FF71C16079
:1010380003618361039201220592052307930992B4
:101048000B9303A903F0B6FF50B900230093029352
:101058006946064804F09CF928B90DB05DF804FB10
:10106800FFF7D8FDF1E7FFF7D5FDF6E71C060024EA
:10107800000400400368B3F1804F00D0704782B08D
:10108800074BD3F8E82042F00102C3F8E820D3F870
:10109800E83003F001030193019B02B0704700BFE1
:1010A8000044025800B589B00023039304930593C4
:1010B800069307930268184B9A4202D009B05DF86C
:1010C80004FB164BD3F8E82042F00202C3F8E820EC
:1010D800D3F8E82002F002020192019AD3F8E02046
:1010E80042F00402C3F8E020D3F8E03003F0040330
:1010F8000293029BC023039302230493079303A93B
:10110800074800F005FD002211461D2000F0D0F927
:101118001D2000F003FAD1E7000400400044025803
:101128000008025800B587B0002301930293039387
:10113800049305930368B3F1804F02D007B05DF8BC
:1011480004FB0B4BD3F8E02042F00102C3F8E02087
:10115800D3F8E03003F001030093009B01230193CF
:1011680002220292059301A9024800F0D1FCE5E7AA
:10117800004402580000025800B58FB000230A93BB
:101188000B930C930D930793089309930093019382
:101198000293039304930593069321484FF08042EA
:1011A80002600122426083600222C260036183619F
:1011B80003F0A0FE20BB4FF480530A930AA91848F5
:1011C80004F04AF8F8B9164803F0C4FEF0B9002351
:1011D8000793099307A9124804F0DAF8C8B96023FD
:1011E8000093002201920292049269460C4803F08F
:1011F80089FF88B90A48FFF795FF0FB05DF804FB2F
:10120800FFF708FDD7E7FFF705FDDCE7FFF702FD6D
:10121800DDE7FFF7FFFCE2E7FFF7FCFCEAE700BFCA
:10122800D005002408B51748174B03604FF4E13385
:10123800436000238360C36003610C2242618361C1
:10124800C36103624362836204F037FF70B900210F
:101258000C4804F0ADFF60B900210A4804F0CDFF46
:1012680050B9084804F085FF48B908BDFFF7D2FC1B
:10127800EDE7FFF7CFFCEFE7FFF7CCFCF1E7FFF76F
:10128800C9FCF2E7680600240010014010B5B8B0A8
:101298000446002133913491359136913791C0221B
:1012A80002A807F0ADF822681F4B9A4201D038B067
:1012B80010BD01220023CDE9022302A802F0F4FAAE
:1012C80078BB1A4BD3F8F02042F01002C3F8F02094
:1012D800D3F8F02002F010020092009AD3F8E02030
:1012E80042F00102C3F8E020D3F8E03003F0010334
:1012F8000193019B4FF4C06333930223349300247A
:10130800359436940723379333A9094800F000FC35
:1013180022462146252000F0CBF8252000F0FEF8D3
:10132800C5E7FFF777FCCCE70010014000440258FE
:1013380000000258DFF834D0FFF708FE0C480D49CA
:101348000D4A002302E0D458C4500433C4188C4218
:10135800F9D30A4A0A4C002301E013600432A2427E
:10136800FBD307F029F8FFF7FAFC704700000824C0
:10137800000000242C0500243C8600082C050024CD
:10138800E8220024FEE70000104B1B780BB901206F
:10139800704710B504464FF47A70B0FBF3F30C4A6B
:1013A8001068B0FBF3F000F0C7F868B90F2C01D94A
:1013B80001200AE0002221464FF0FF3000F078F8C3
:1013C800044B1C60002000E0012010BD0800002430
:1013D800000000240C00002410B5032000F056F88B
:1013E80001F0BAFE0F498B69C3F303230E4AD35C9D
:1013F80003F01F03D8408B6903F00F03D35C03F09D
:101408001F0320FA03F3094A1360094B18600F20E1
:10141800FFF7BAFF10B10124204610BD0446FFF7BC
:1014280049FDF9E700440258A48500080400002497
:1014380000000024034B1B78034A11680B44136017
:10144800704700BF08000024FC060024014B186800
:10145800704700BFFC06002438B50446FFF7F6FFC6
:101468000546B4F1FF3F02D0044B1B781C44FFF73C
:10147800EDFF401BA042FAD338BD00BF080000248E
:10148800014B1868000C70470010005C0649CB68D7
:1014980023F4E0631B041B0C000200F4E060034328
:1014A800024A1A43CA60704700ED00E00000FA05DE
:1014B80000B5174BDB68C3F30223C3F1070CBCF17B
:1014C800040F28BF4FF0040C03F1040EBEF1060F01
:1014D80014D9033B4FF0FF3E0EFA0CFC21EA0C0135
:1014E80099400EFA03F322EA03031943002807DBA5
:1014F8000901C9B2074B19545DF804FB0023E9E759
:1015080000F00F000901C9B2034B1954F4E700BFFA
:1015180000ED00E000E400E014ED00E0002807DB47
:1015280000F01F02400901239340024A42F820308C
:10153800704700BF00E100E00138B0F1807F0BD2B6
:101548004FF0E0235861054AF02182F8231000206B
:10155800986107221A6170470120704700ED00E08A
:1015680070B50446FFF772FF002C00F09181054624
:1015780094F83530DBB2022B06D080236365002354
:1015880084F83430012070BD23688C498C4A93421A
:1015980018BF8B4230D0183293422DD01832934264
:1015A8002AD01832934227D01832934224D01832C6
:1015B800934221D0183293421ED002F556729342BC
:1015C8001AD01832934217D01832934214D01832D6
:1015D800934211D0183293420ED0183293420BD056
:1015E8001832934208D01832934205D01A6822F074
:1015F8000E021A60266809E01A6822F01E021A60B4
:101608002268536923F080035361266823686B4975
:101618006B4A934218BF8B4242D0183293423FD054
:10162800183293423CD01832934239D01832934240
:1016380036D01832934233D01832934230D002F564
:10164800567293422CD01832934229D018329342C2
:1016580026D01832934223D01832934220D0183221
:1016680093421DD0183293421AD01832934217D0A1
:10167800544A934214D01432934211D014329342F4
:101688000ED0143293420BD01432934208D0143245
:10169800934205D01432934202D01432934204D1BB
:1016A800226E136823F48073136023684349444A05
:1016B800934218BF8B422FD0183293422CD0183245
:1016C800934229D01832934226D01832934223D01D
:1016D8001832934220D0183293421DD002F5567228
:1016E800934219D01832934216D01832934213D02D
:1016F8001832934210D0183293420DD018329342C8
:101708000AD01832934207D01832934204D01A688C
:1017180022F001021A6003E01A6822F001021A603E
:10172800336813F0010F0ED0FFF790FE431B052B13
:10173800F6D920236365032384F83530002384F821
:10174800343001201FE723681C491D4A934218BF03
:101758008B4239D01832934236D01832934233D064
:101768001832934230D0183293422DD01832934217
:101778002AD01832934227D002F55672934223D0CA
:101788001832934220D0183293421DD01832934217
:101798001AD01832934217D01832934214D0183204
:1017A800934211D0183293420ED0A16DE36D03F02D
:1017B8001F02012393404B600DE000BF1000024060
:1017C8002800024008540258A16DE36D03F01F027F
:1017D8003F2393408B6023682E492F4A934218BFBA
:1017E8008B4242D0183293423FD0183293423CD0B9
:1017F8001832934239D01832934236D01832934275
:1018080033D01832934230D002F5567293422CD01E
:101818001832934229D01832934226D01832934274
:1018280023D01832934220D0183293421DD0183258
:1018380093421AD01832934217D0184A934214D0C0
:101848001432934211D0143293420ED01432934280
:101858000BD01432934208D01432934205D014327C
:10186800934202D0143293420BD1636EA26E5A6037
:10187800E36E33B11A6822F480721A60236F626FC4
:101888005A60012384F83530002084F834007AE661
:10189800012078E61000024028000240085402584F
:1018A800002800F0298108B5024690F83530DBB2EF
:1018B800022B03D080234365012008BD03689048AC
:1018C80090498B4218BF83420CBF0121002166D08A
:1018D8003030834263D01830834260D0183083425E
:1018E8005DD0183083425AD01830834257D0183010
:1018F800834254D000F55670834250D0183083424A
:101908004DD0183083424AD01830834247D018301F
:10191800834244D01830834241D0183083423ED0AD
:10192800183083423BD0196821F00E011960136802
:10193800A0F5956073498B4218BF83426AD07249FB
:101948008B4267D018318B4264D018318B4261D0FA
:1019580018318B425ED018318B425BD018318B42E4
:1019680058D001F556718B4254D018318B4251D062
:1019780018318B424ED018318B424BD018318B42E4
:1019880048D018318B4245D018318B4242D018319B
:101998008B423FD0196821F0010119603EE0042014
:1019A80082F8350081BB584A93422DD018329342B1
:1019B8002AD01832934227D01832934224D01832B2
:1019C800934221D0183293421ED002F556729342A8
:1019D8001AD01832934217D01832934214D01832C2
:1019E800934211D0183293420ED0183293420BD042
:1019F8001832934208D01832934205D01A6822F060
:101A080001021A60002058E71A6822F001021A60E1
:101A1800002052E7196821F001011960136838485D
:101A280038498B4218BF834242D018318B423FD08D
:101A380018318B423CD018318B4239D018318B4247
:101A480036D018318B4233D018318B4230D001F563
:101A580056718B422CD018318B4229D018318B42C9
:101A680026D018318B4223D018318B4220D0183120
:101A78008B421DD018318B421AD018318B4217D0A7
:101A880022498B4214D014318B4211D014318B422D
:101A98000ED014318B420BD014318B4208D0143144
:101AA8008B4205D014318B4202D014318B4217D1AE
:101AB800116E0B6823F480730B60906DD36D03F087
:101AC8001F0101238B404360536E916E5960D36EA2
:101AD80033B1196821F480711960136F516F59601F
:101AE800012382F83530002382F83430136D2BB18E
:101AF800104698470020E0E6012070470020DCE609
:101B080010000240280002404000024008540258D9
:101B180070B582B000236EE085685E000324B4408F
:101B280025EA0405CC68B4402C438460446824EA60
:101B38000C0C4C68C4F300149C4044EA0C04446048
:101B48006CE0DD08083550F8256003F007044FEA1B
:101B5800840C0F2404FA0CF426EA040E0C6904FA27
:101B68000CF444EA0E0440F825406FE0092400E034
:101B7800002404FA0EF42C430CF1020C6B4D45F8CA
:101B88002C404FF0B0442568D44325EA0206D1F82A
:101B980004C01CF4801F01D042EA05064FF0B0458E
:101BA8002E606D6804EA0506D1F804C01CF4001F15
:101BB80001D042EA05064FF0B0456E60D5F8845072
:101BC80004EA0506D1F804C01CF4003F01D042EA3B
:101BD80005064FF0B045C5F88460D5F880502C4014
:101BE8004E6816F4803F01D042EA05044FF0B04237
:101BF800C2F8804001330A6832FA03F400F0938097
:101C08004FF0010C0CFA03FC1CEA0202F2D04C68FB
:101C180004F00304013C012C7FF67EAF4C6804F00D
:101C28000304032C0CD0C4685D004FF0030C0CFABD
:101C380005FC24EA0C0C8C68AC4044EA0C04C46033
:101C48004C6804F00304022C3FF47BAF04684FEAAD
:101C5800430E4FF0030C0CFA0EFC24EA0C0C4C68F3
:101C680004F0030404FA0EF444EA0C0404604C681B
:101C780014F4403FBED02E4CD4F8F45045F0020581
:101C8800C4F8F450D4F8F44004F002040194019C20
:101C98004FEA930C0CF10205244C54F8255003F03C
:101CA80003044FEA840E0F2404FA0EF425EA04050F
:101CB800204CA0423FF45CAF04F58064A04222D0DF
:101CC80004F58064A04220D004F58064A0421ED0B0
:101CD80004F58064A0421CD004F58064A0421AD0A8
:101CE80004F58064A04218D004F58064A04216D0A0
:101CF80004F58064A04214D004F58064A0423FF447
:101D080035AF0A2435E7012433E7022431E70324F9
:101D18002FE704242DE705242BE7062429E70724C9
:101D280027E7082425E702B070BD00BF000400586B
:101D380000440258000002580AB181617047090442
:101D480081617047704708B54FF0B043D3F88830C9
:101D5800034200D108BD4FF0B043C3F88800FFF735
:101D6800F1FFF7E72DE9F04383B0D0F8008001EBED
:101D7800C10300EB83039A6A5B6A9A4254D8074608
:101D88000C469B1A01EBC10200EB8202D2699A420F
:101D980000D31A4602F103094FEA990915E006F142
:101DA80003094FEA9909BB7904EBC40507EB8505DC
:101DB800296A0093B3B2E2B2404604F07BFD2B6A75
:101DC80033442B62AB6A3344AB6208EB441303F52C
:101DD80010639B699BB24B4512D304EBC40207EB1B
:101DE8008202916A536A99420AD24BB15B1A04EB98
:101DF800C40207EB8202D6699E42D0D31E46CEE7C4
:101E080004EBC40007EB80077A6ABB6A9A420FD8D2
:101E180004F00F040123A340D8F8344824EA03044B
:101E2800C8F83448002000E0012003B0BDE8F08382
:101E38000020FAE730B583B000287AD0044690F83D
:101E48009534ABB1032384F89534206804F0EAFA9A
:101E5800237C8DF80030231D0ECB206804F018FA7F
:101E680058B1022384F895340125284603B030BDC3
:101E780080F8943406F0E2F8E4E70021206804F0E2
:101E880034FF024608B9034617E0022384F8953464
:101E98000125EAE703EBC30104EB81010120487542
:101EA8000B75CB8500200876C861086203EBC30177
:101EB80004EB810148620133DBB220799842E9D80A
:101EC80016E002EBC20304EB8303002183F85512EA
:101ED80083F8542283F85812C3F85C12C3F86012CE
:101EE80002EBC20304EB8303C3F864120132D2B2DB
:101EF8009042E6D8237C8DF80030231D0ECB206855
:101F080004F0E6FA054658B900236374012384F8FF
:101F18009534237B012B08D0206804F0A4FEA4E7A5
:101F2800022384F8953401259FE7204600F072FDCE
:101F3800F2E7012599E7036890F89424012A1AD05A
:101F480010B50446012280F89424DA6812F0400F94
:101F580002D0427B012A09D0206804F05DFA20688B
:101F680004F073FE002084F8940410BD9A6B42F4C8
:101F780080329A63F0E702207047000070B504468B
:101F88000D460068066C00EB411303F530639A6850
:101F9800A179012911D038498E4256D03DB905EBB7
:101FA800C50304EB8303D3F86432002B5ED0E9B297
:101FB800204606F0F3F8002070BD12F0080F09D093
:101FC8002E498E42F7D912F4004FF4D04FF4004254
:101FD8009A60F0E712F0200F02D020229A60EAE718
:101FE80012F0280FE7D125498E4206D912F4004F86
:101FF80003D04FF400429A60DDE705EBC50204EB1D
:102008008202D2F874121B69C3F31203CB1AC2F806
:1020180068327DB905EBC50204EB8202D2F864226E
:102028006AB105EBC50204EB8202D2F860120B44D8
:10203800C2F86032E9B2204606F0B0F8BBE704F215
:102048009C42012104F092FEF4E712F4004F03D001
:102058004FF400429A60AEE712F0200F01D0202220
:102068009A60E9B2204606F099F8A4E704F29C4287
:10207800002104F07BFE9AE70A31544F0A30544F8E
:1020880038B5044603681D6C03EB4113D3F8081BED
:102098000E4A954207D903F5306311F4004F02D078
:1020A8004FF400429A60204606F070F8074B9D42B4
:1020B80002D9A379012B01D0002038BD04F29C423B
:1020C8000121206804F052FEF6E700BF0A30544FA1
:1020D80090F89434012B0CD010B50446012380F8F5
:1020E80094344174006804F0A0FD002084F894043E
:1020F80010BD0220704738B505468C4611F0800F98
:1021080029D101F00F0E0EEBCE04A40004F51474CF
:102118000444211D0EEBCE0E00EB8E0E00208EF82F
:1021280055020CF00F0C81F800C08A600B714A78D8
:102138000AB1A1F81AC0022B1CD095F89434012BCF
:102148001BD0012385F89434286804F097FA0020FE
:1021580085F8940438BD01F00F0000EBC001890038
:1021680010312944043100EBC00005EB8000012444
:102178004475D6E700234B71DFE70220EAE710B584
:1021880004460A4611F0800F20D101F00F0000EB41
:10219800C0039B0003F514732344191D00EBC00012
:1021A80004EB8000002380F8553202F00F020A7019
:1021B80094F89434012B18D0012384F894342068BF
:1021C80004F0AAFA002084F8940410BD01F00F006E
:1021D80000EBC0039B0010332344191D00EBC00023
:1021E80004EB800001234375DFE70220EDE710B51B
:1021F800144601F00F0C0CEBCC01890001F51471A9
:10220800014404310CEBCC0E00EB8E0ECEF86022AC
:10221800CEF864320023CEF868328EF855328EF844
:1022280054C28279012A04D0006804F05BFB0020C4
:1022380010BDCEF87042F7E701F00F0101EBC101C4
:1022480000EB8101D1F86802704710B5144601F01F
:102258000F0C0CEBCC0189001031014404310CEB5C
:10226800CC0E00EB8E0ECEF82020CEF824300023C2
:10227800CEF8283001238EF815308EF814C08279F4
:102288009A4204D0006804F02DFB002010BDCEF85F
:102298003040F7E738B501F00F050279AA4238D384
:1022A80004460B4611F0800F1FD101EBC1018900D4
:1022B80001F514710144043103EBC30300EB8303FC
:1022C800002283F8552201238B700D7094F8943402
:1022D800012B20D0012384F89434206804F04AFCB0
:1022E80085B1002084F8940438BD05EBC501890048
:1022F80010310144043105EBC50300EB83030122CF
:102308005A75E0E704F29C42A179206804F02EFD9A
:10231800E7E70120E8E70220E6E701F00F0302798A
:102328009A4230D310B5044611F0800F1ED103EB4A
:10233800C301890001F514710144043103EBC302A0
:1023480000EB8202002082F8550200228A700B708E
:1023580094F89434012B18D0012384F8943420681D
:1023680004F035FC002084F8940410BD03EBC3018D
:10237800890010310144043103EBC30200EB8202EF
:1023880001205075E1E7012070470220EDE708B50C
:1023980011F0800F0CD101F00F0101EBC101890090
:1023A80001F5147101440431006804F025FA08BDF0
:1023B80001F00F0101EBC101890010310144043122
:1023C800F2E72DE9F04F83B004460568284604F08B
:1023D80088FC10B103B0BDE8F08F0646206804F011
:1023E80050FC0028F6D005F50067BB68C3F30D2341
:1023F800C4F8D434206804F044FC10F0020F04D070
:102408002268536903F002035361206804F039FC21
:1024180010F0100F14D02268936923F01003936111
:10242800D5F8208008F00F09C8F34343022B69D080
:10243800062B00F08D802268936943F010039361A6
:10244800206804F01EFC10F4002F40F093802068F0
:1024580004F017FC10F4802F40F0FC80206804F092
:1024680010FC0028C0F27D81206804F00AFC10F4FA
:10247800006F09D0BB6813F0010F40F08A81226811
:10248800536903F400635361206804F0FAFB10F009
:10249800006F15D02268536903F00063536194F804
:1024A800CC34002B40F07981012184F8CC142368C6
:1024B8005B6DC3F38303C4F8D034204600F0BEFA42
:1024C800206804F0DEFB10F4805F40F06A81206829
:1024D80004F0D7FB10F4005F40F0B681206804F0E8
:1024E800D0FB10F0080F40F0C781206804F0C9FB4A
:1024F80010F0800F00F0DA81AB6923F08003AB6144
:102508000126C3E147F6F07318EA030F93D04FEAA8
:10251800181B4FEAC903019309EBC90A04EB8A0A9D
:10252800C8F30A12DAF86012284604F0F9FACBF375
:102538000A0BDAF860325B44CAF86032019B4B44FC
:1025480004EB8303D3F868325B44CAF8683272E755
:10255800082204F29C41284604F0E2FAC8F30A185B
:1025680009EBC90204EB8202D2F868324344C2F88C
:10257800683260E7206804F088FB8046B14635E0A1
:1025880005EB49130122C3F8082B49462046FFF7FB
:10259800F5FC3CE005EB49130822C3F8082B494633
:1025A8002046FFF76DFD35E009EBC90304EB830313
:1025B80093F85732012B41D005EB49130222C3F897
:1025C800082B1AF0200F04D005EB49132022C3F87A
:1025D800082B1AF4005F05D005EB49134FF400529D
:1025E800C3F8082B09F101094FEA5808B8F1000FA0
:1025F8003FF42DAF18F0010FF4D05FFA89FB59466C
:10260800206804F052FB824610F0010FB8D11AF08E
:10261800080FBFD11AF0100F04D005EB4913102290
:10262800C3F8082B1AF0020FCBD06B6913F0800F98
:10263800BAD07B6843F480637B60B5E709EBC903D4
:1026480004EB8303002283F857225946204605F0FD
:10265800F5FDB1E7206804F020FB8046B14625E08F
:102668005946204605F0A6FD1AF0080F04D005EBE0
:1026780049130822C3F808291AF0100F04D005EBF3
:1026880049131022C3F808291AF0400F04D005EBAB
:1026980049134022C3F808291AF0020F40D11AF052
:1026A800800F59D109F101094FEA5808B8F1000F14
:1026B8003FF4D4AE18F0010FF4D05FFA89FB594605
:1026C800206804F0FBFA824610F0010FCCD009F024
:1026D8000F03012101FA03F27B6B23EA02037B63F8
:1026E80005EB4913C3F80819A3798B42B8D109EB54
:1026F800C90304EB8303D9691A6A0A441A62B9F157
:10270800000FADD109EBC90304EB83035B6A002B0F
:10271800A6D104F29C420121206804F027FB9FE720
:102728004946284603F084FE09EBC90304EB8303FA
:10273800DB7D012B05D005EB49130222C3F80829DC
:10274800ADE709EBC90304EB83030022DA755946A8
:10275800204605F079FDEEE749462046FFF702FBE3
:10276800A0E77B6823F001037B6094F8CC34012B4D
:1027780008D0204605F05CFD2268536903F0004349
:10278800536171E6002184F8CC14204600F056F914
:10279800F2E7204605F034FD71E6204605F030FDED
:1027A8008EE67B6823F001037B601021206803F02C
:1027B8003FFE1AE005EB46134FF67F31C3F80819C0
:1027C800D3F8002922F40012C3F80029C3F8081B23
:1027D800D3F8002B22F40012C3F8002BD3F8002BF7
:1027E80042F00062C3F8002B01362379B342E1D8E6
:1027F800FB6943F00113FB61E37BDBB1D7F884305D
:1028080043F00B03C7F884307B6C43F00B037B6405
:10281800D5F8003823F4FE63C5F8003804F29C426A
:10282800A179206804F0A2FA2268536903F480535E
:1028380053614CE67A6942F22B0313437B613B698F
:1028480043F00B033B61E3E7206804F07FFA20685C
:1028580003F004FFE071266800F0D4FE0146E27937
:10286800304603F067FD204605F0B5FC2268536941
:1028780003F40053536131E6204605F0A6FC2268B4
:10288800536903F0080353612FE601362379B342F5
:102898000CD906EBC60304EB830393F85732012BDC
:1028A800F3D1F1B22046FFF772FDEEE7206804F09D
:1028B800E8F910F4801F25D1206804F0E2F910F43B
:1028C800001F59D0012326E001362379B3421BD9D2
:1028D80005EB4613D3F8002906EBC60304EB830384
:1028E8001B7E012BF0D1002AEEDA06EBC60304EBBF
:1028F80083030122DA7566F07F01C9B22046FFF72B
:1029080046FDE1E70126E0E72268536903F48013F6
:102918005361D1E7013322799A4228D905EB431252
:10292800D2F8001B03EBC30204EB820292F8582290
:10293800012AEFD10029EDDA01F48031D4F8D4244A
:1029480002F001029142E5D103EBC30204EB8202DB
:10295800012182F85712AA6942F08002AA616A69C5
:1029680012F0800FD6D17B6843F400737B60226835
:10297800536903F400135361206804F082F910F0DE
:10298800804F10D1206804F07CF910F0040F3FF458
:1029980021AD23685D6815F0040F0DD122685368D6
:1029A8002B43536016E5204605F054FC2268536912
:1029B80003F080435361E5E7204605F051FCEDE75D
:1029C80010B40468606A29B940EA0240A062002095
:1029D80010BC70478C46A36A00EB1340002308E044
:1029E80003F1400104EB8101496800EB1140013318
:1029F800DBB20CF1FF318B42F2D340EA02400CF11A
:102A08003F0104EB81014860E1E703685962002057
:102A180070470000034602680121C0F8D81400205E
:102A280083F8CC04936943F000639361516D024BC2
:102A38000B435365704700BF030000107047000048
:102A4800134BDB6813F0040F07D1114BDB6803F05D
:102A5800070383421AD00120704710B50C4AD36887
:102A680023F007031843D060FEF7F0FC0446084B38
:102A78005B6813F4005F07D1FEF7E8FC001BB0F5B4
:102A88007A7FF4D9012000E0002010BD00207047B3
:102A980000480258024AD36843F08073D3607047F5
:102AA80000480258002800F0398338B50446036806
:102AB80013F0010F25D0944A136903F03803926A82
:102AC800102B15D0182B0FD06368B3F5803F3FD07B
:102AD800002B53D18C4B1A6822F480321A601A6882
:102AE80022F480221A6038E002F00302022AEBD1B5
:102AF800854B1B6813F4003F03D06368002B00F07C
:102B08000F83236813F0020F00F0A1807E4A136937
:102B1800926A13F038035AD0182B55D0E368002B6B
:102B280000F0DE8078490A6822F0190213430B602E
:102B3800FEF78CFC0546744B1B6813F0040F40F03D
:102B4800AD80FEF783FC401B0228F4D90320EEE297
:102B58006D4A136843F48033136063682BB3FEF740
:102B680075FC0546684B1B6813F4003FC9D1FEF796
:102B78006DFC401B6428F5D90320D8E2B3F5A02FDB
:102B880009D0614B1A6822F480321A601A6822F45C
:102B980080221A60E1E75C4B1A6842F480221A60CE
:102BA8001A6842F480321A60D7E7FEF74FFC0546F0
:102BB800554B1B6813F4003FA3D0FEF747FC401B9E
:102BC8006428F5D90320B2E212F0030FA6D14E4BC8
:102BD8001B6813F0040F03D0E368002B00F0A282F7
:102BE800494A136823F01903E1680B431360FEF7A1
:102BF8002DFC0546444B1B6813F0040F06D1FEF765
:102C080025FC401B0228F5D9032090E2FEF738FC8A
:102C180041F20303984212D82269402A07D03A4960
:102C28004B6823F47C3343EA02334B600FE0364AA7
:102C3800536823F47C3343F40033536007E0324A8B
:102C4800536823F0FE43216943EA01635360236814
:102C580013F0100F00F088802B4A136903F0380333
:102C6800926A082B56D0182B50D0E369002B00F03D
:102C7800B880254A136843F080031360FEF7E6FB2B
:102C88000546214B1B6813F4807F40F08880FEF7CF
:102C9800DDFB401B0228F4D9032048E2FEF7F0FBD5
:102CA80041F20303984212D82269402A07D01649F4
:102CB8004B6823F47C3343EA02334B60C7E7124A7C
:102CC800536823F47C3343F400335360BFE70E4A60
:102CD800536823F0FE43216943EA01635360B6E772
:102CE800094A136823F001031360FEF7AFFB05469A
:102CF800054B1B6813F0040FA9D0FEF7A7FB401B78
:102D08000228F5D9032012E20044025802F0030217
:102D1800012AAAD1A14B1B6813F4807F03D0E36971
:102D2800802B40F00182FEF7ABFB41F2030398428F
:102D380012D8226A202A07D098494B6823F0F84312
:102D480043EA82634B600FE0944A536823F0F843E8
:102D580043F08043536007E0904AD36823F07C53E4
:102D6800216A43EA0163D360236813F0080F60D037
:102D78006369002B49D0894A536F43F001035367B5
:102D8800FEF764FB0546854B5B6F13F0020F50D1CD
:102D9800FEF75CFB401B0228F5D90320C7E1FEF7CC
:102DA8006FFB41F20303984212D8226A202A07D007
:102DB8007A494B6823F0F84343EA82634B60D3E7D0
:102DC800764A536823F0F84343F080435360CBE7D7
:102DD800724AD36823F07C53216A43EA0163D360C3
:102DE800C2E76E4A136823F080031360FEF72EFBD8
:102DF80005466A4B1B6813F4807FB5D0FEF726FBA7
:102E0800401B0228F5D9032091E1644A536F23F04F
:102E180001035367FEF71AFB0546604B5B6F13F01F
:102E2800020F06D0FEF712FB401B0228F5D903203B
:102E38007DE1236813F0200F29D0A3699BB1574A7D
:102E4800136843F480531360FEF700FB0546534BA9
:102E58001B6813F4005F1AD1FEF7F8FA401B02282A
:102E6800F5D9032063E14D4A136823F480531360B6
:102E7800FEF7ECFA0546494B1B6813F4005F06D0D1
:102E8800FEF7E4FA401B0228F5D903204FE1236836
:102E980013F0040F21D1636A002B00F047813F4AE9
:102EA800126902F03802182A00F0EE80022B79D05D
:102EB8003A4A136823F080731360FEF7C7FA044692
:102EC800364B1B6813F0007F00F0DC80FEF7BEFA7B
:102ED800001B0228F4D9032029E1314A136843F47E
:102EE80080731360FEF7B2FA05462D4B1B6813F486
:102EF800807F06D1FEF7AAFA401B6428F5D9032083
:102F080015E1A368012B0AD00BBB244B1A6F22F0E2
:102F180001021A671A6F22F004021A6704E01F4AB6
:102F2800136F43F001031367A36833B3FEF78EFAF8
:102F380005461A4B1B6F13F0020FACD1FEF786FA49
:102F4800401B41F288339842F3D90320EFE0052B68
:102F580009D0124B1A6F22F001021A671A6F22F079
:102F680004021A67E0E70D4B1A6F42F004021A6771
:102F78001A6F42F001021A67D6E7FEF767FA0546AC
:102F8800064B1B6F13F0020F85D0FEF75FFA401B4C
:102F980041F288339842F3D90320C8E0004402582C
:102FA80000480258694A136823F080731360FEF7DB
:102FB8004DFA0546654B1B6813F0007F06D0FEF7F7
:102FC80045FA401B0228F5D90320B0E05F4B996A07
:102FD8005F4A0A40A16AE06A41EA00110A439A621C
:102FE800226B013AC2F30802616B0139490289B2C6
:102FF8000A43A16B0139090401F4FE010A43E16B9C
:103008000139090601F0FE410A431A63DA6A22F01F
:103018000102DA62596B4F4A0A40A16C42EAC102C6
:103028005A63DA6A22F00C02216C0A43DA62DA6A1D
:1030380022F00202616C0A43DA62DA6A42F48032F0
:10304800DA62DA6A42F40032DA62DA6A42F4802238
:10305800DA62DA6A42F00102DA621A6842F08072D1
:103068001A60FEF7F3F90446384B1B6813F0007F2B
:1030780006D1FEF7EBF9001B0228F5D9032056E02C
:10308800002054E0002052E0304A916A106B012B76
:103098004ED001F00303A26A93424BD1C1F305114C
:1030A800E36A994248D1C0F30802236B013B9A4274
:1030B80044D1C0F34622636B013B9A4240D1C0F32E
:1030C8000642A36B013B9A423CD1C0F30660E36B16
:1030D800013B984238D11D4B5B6BC3F3CC03A26C08
:1030E8009A4201D1002022E0184AD36A23F0010352
:1030F800D362FEF7ABF90546FEF7A8F9A842FBD064
:10310800124A516B134B0B40A16C43EAC103536342
:10311800D36A43F00103D362002008E0012070471E
:10312800012004E0012002E0012000E0002038BD79
:103138000120FCE70120FAE70120F8E70120F6E783
:103148000120F4E70120F2E70120F0E700440258EB
:103158000CFCFFFF0700FFFFF8B57E4B1B6903F06F
:103168003803102B00F0F280182B10D013B17A4CD2
:103178002046F8BD774B1B6813F0200F00F0E8805D
:10318800744B1868C0F3C100744CC440F0E7714B2D
:103198009D6A05F003059C6AC4F30514D86A00F01B
:1031A80001005B6BC3F3CC0303FB00F0FDF746F9AA
:1031B8000646002CDCD0012D76D0022D00F0A4802C
:1031C8000DB32046FDF73AF901466548FDF742FA86
:1031D8000446604B186BC0F30800FDF72FF905464D
:1031E8004FF064513046FDF781F901462846FDF756
:1031F80075F84FF07E51FDF771F801462046FDF74E
:1032080075F9044671E0534B1B6813F0200F29D061
:10321800504F3B68C3F3C1035048D840FDF70EF93F
:1032280005462046FDF70AF901462846FDF712FA39
:103238000446386BC0F30800FDF700F905464FF067
:1032480064513046FDF752F901462846FDF746F825
:103258004FF07E51FDF742F801462046FDF746F94A
:10326800044642E02046FDF7E9F801463D48FDF7EF
:10327800F1F90446374B186BC0F30800FDF7DEF888
:1032880005464FF064513046FDF730F901462846AF
:10329800FDF724F84FF07E51FDF720F8014620464F
:1032A800FDF724F9044620E02046FDF7C7F801465B
:1032B8002B48FDF7CFF90446264B186BC0F30800DE
:1032C800FDF7BCF805464FF064513046FDF70EF99E
:1032D80001462846FDF702F84FF07E51FCF7FEFF45
:1032E80001462046FDF702F904461A4B1B6BC3F34F
:1032F8004623581CFDF7A2F801462046FDF7AAF917
:10330800FDF744FA044633E72046FDF797F80146EF
:103318001548FDF79FF904460E4B186BC0F30800DB
:10332800FDF78CF805464FF064513046FDF7DEF89E
:1033380001462846FCF7D2FF4FF07E51FCF7CEFF3E
:1033480001462046FDF7D2F80446CEE7074C0FE7C2
:10335800024C0DE70044025800093D000090D003DC
:103368000024744A0024744C0024F44A00127A00A1
:10337800002800F0328170B50D4604469B4B1B684F
:1033880003F00F038B420BD2984A136823F00F0304
:103398000B431360136803F00F038B4240F01F8147
:1033A800236813F0040F0CD02269914B9B6903F03A
:1033B80070039A4205D98E498B6923F070031A432A
:1033C8008A61236813F0080F0CD06269884BDB69A7
:1033D80003F070039A4205D98549CB6923F070033D
:1033E8001A43CA61236813F0100F0CD0A269804BEE
:1033F800DB6903F4E0639A4205D97D49CB6923F47C
:10340800E0631A43CA61236813F0200F0CD0E26905
:10341800774B1B6A03F070039A4205D974490B6A0B
:1034280023F070031A430A62236813F0020F0CD0CA
:10343800E2686F4B9B6903F00F039A4205D96C4908
:103448008B6923F00F031A438A61236813F0010F75
:1034580041D0674A936923F47063A1680B43936171
:103468006368022B0AD0032B27D0012B2CD0604A8B
:10347800126812F0040F06D10120ADE0126812F4B0
:10348800003F00F0AE805A490A6922F00702134350
:103498000B61FDF7DBFF0646554B1B6903F038034C
:1034A8006268B3EBC20F16D0FDF7D0FF801B41F264
:1034B80088339842F0D903208EE04D4A126812F002
:1034C800007FE0D1012087E0494A126812F4807F2A
:1034D800D9D1012080E0236813F0020F0CD0E268F4
:1034E800434B9B6903F00F039A4205D240498B690D
:1034F80023F00F031A438A613C4B1B6803F00F0348
:10350800AB420AD9394A136823F00F032B431360DF
:10351800136803F00F03AB4265D1236813F0040F5F
:103528000CD02269324B9B6903F070039A4205D292
:103538002F498B6923F070031A438A61236813F0BB
:10354800080F0CD062692A4BDB6903F070039A42BA
:1035580005D22749CB6923F070031A43CA6123684F
:1035680013F0100F0CD0A269214BDB6903F4E06360
:103578009A4205D21E49CB6923F4E0631A43CA6113
:10358800236813F0200F0CD0E269194B1B6A03F073
:1035980070039A4205D216490B6A23F070031A4346
:1035A8000A62FFF7D9FD12498B69C3F30323114A55
:1035B800D35C03F01F03D8408B6903F00F03D35C7F
:1035C80003F01F0320FA03F30B4A13600B4B186038
:1035D8000B4B1868FDF7D8FE70BD0120704701201D
:1035E800FAE70120F8E70120F6E700BF00200052C3
:1035F80000440258A48500080400002400000024A8
:103608000C00002408B5FFF7A7FD0B4A9369C3F324
:1036180003230A49CB5C03F01F0320FA03F39269E2
:1036280002F00F02885C00F01F0023FA00F0044A41
:103638001060044A136008BD00440258A4850008BD
:10364800040000240000002408B5FFF7DBFF054B49
:10365800DB69C3F30213044AD35C03F01F03D840A9
:1036680008BD00BF00440258A485000808B5FFF74C
:10367800C9FF054BDB69C3F30223044AD35C03F09B
:103688001F03D84008BD00BF00440258A4850008A5
:10369800404B9B6A03F00303032B79D070B50546B2
:1036A8000E463C4A136823F080631360FDF7CEFE94
:1036B8000446384B1B6813F0006F06D0FDF7C6FEB2
:1036C800031B022BF5D9032070BD324B9A6A22F4F2
:1036D8007C32296842EA01329A626A68013AC2F386
:1036E8000802A9680139490289B20A43E96801391F
:1036F800090401F4FE010A4329690139090601F0A8
:10370800FE410A439A63DA6A22F0C00269690A43F1
:10371800DA62DA6A22F02002A9690A43DA62DA6A0E
:1037280022F01002DA62D96B1B4A0A40E96942EAC0
:10373800C102DA63DA6A42F01002DA62C6B91A46DE
:10374800DB6A43F40023D362124A136843F08063B0
:103758001360FDF77BFE04460E4B1B6813F0006FE9
:1037680014D1FDF773FE001B0228F5D90320ABE73F
:10377800012E05D0074AD36A43F40013D362E3E766
:10378800044AD36A43F48013D362DDE700209BE741
:1037980001207047004402580700FFFF404B9B6A16
:1037A80003F00303032B79D070B505460E463C4A57
:1037B800136823F080531360FDF748FE0446384B26
:1037C8001B6813F0005F06D0FDF740FE031B022BB9
:1037D800F5D9032070BD324B9A6A22F07C722968B1
:1037E80042EA01529A626A68013AC2F30802A96879
:1037F8000139490289B20A43E9680139090401F427
:10380800FE010A4329690139090601F0FE410A430C
:103818001A64DA6A22F4406269690A43DA62DA6A87
:1038280022F40072A9690A43DA62DA6A22F4807221
:10383800DA62596C1B4A0A40E96942EAC1025A64D1
:10384800DA6A42F48072DA62C6B91A46DB6A43F46D
:103858008003D362124A136843F080531360FDF764
:10386800F5FD04460E4B1B6813F0005F14D1FDF7FD
:10387800EDFD001B0228F5D90320ABE7012E05D08A
:10388800074AD36A43F08073D362E3E7044AD36AF2
:1038980043F40003D362DDE700209BE70120704773
:1038A800004402580700FFFFF8B50446036813F008
:1038B800006F30D0836EB3F5001F26D00ED8EBB161
:1038C800B3F5801F07D102210830FFF7E1FE054656
:1038D80045B12E4621E0012635461EE0B3F5401FCE
:1038E80009D10025984A136D23F44013A16E0B43A8
:1038F8001365002611E0012635460EE0924AD36A88
:1039080043F40033D3620025ECE702212830FFF7A7
:1039180045FF0546DCE700263546236813F4807F1B
:1039280014D0A36D042B32D8DFE803F003232A0850
:103938000800854AD36A43F40033D36255BB824AF0
:10394800136D23F00703A16D0B431365236813F46C
:10395800007F31D0E36D802B4CD020D8002B43D092
:10396800402B19D1002104F10800FFF791FE05460C
:103978001AE0002104F10800FFF78AFE0546DDE79A
:10398800002104F12800FFF709FF0546D6E70126C4
:103998003546DBE72E46D9E7012635460CE0C02B35
:1039A80002D0B3F5807F1CD15DBB674A136D23F449
:1039B800E073E16D0B431365236813F4806F46D001
:1039C800D4F8A830B3F5800F39D01FD88BB3B3F52E
:1039D800001F18D1002104F10800FFF759FE054621
:1039E8001AE001263546E7E7574AD36A43F400331D
:1039F800D362D9E7002104F12800FFF7CFFE05467E
:103A0800D2E72E46D8E70126354620E0B3F5C00FA9
:103A180002D0B3F5000F09D1C5B94B4A936D23F411
:103A28006003D4F8A8100B43936510E001263546CF
:103A38000DE0454AD36A43F40033D362ECE7002132
:103A480004F12800FFF7AAFE0546E5E72E4623689D
:103A580013F4006F24D0D4F8AC30B3F1007F42D017
:103A68000ED8002B39D0B3F1807F06D1002104F1A4
:103A78000800FFF70DFE054608E0012635460FE071
:103A8800B3F1407F02D0B3F1806F23D1002D31D143
:103A98002D4A936D23F0E063D4F8AC100B43936583
:103AA800236813F0007F2ED0E36C202B40D026D85B
:103AB80033B1102B20D1244AD36A43F40033D362A4
:103AC800002D3CD1204AD36C23F03003E16C0B432A
:103AD800D36418E001263546E2E71B4AD36A43F46B
:103AE8000033D362D2E7002104F12800FFF756FE25
:103AF8000546CBE72E46D3E70126354603E0302BB3
:103B0800DED001263546236813F4805F2DD0236E5E
:103B1800B3F5005F4FD019D8002B46D0B3F5805FBE
:103B28000FD1002104F10800FFF7B2FD054613E0AC
:103B3800022104F10800FFF7ABFD0546C0E72E4659
:103B4800E1E70126354610E000440258B3F5405F2E
:103B580002D0B3F5804F25D1002D33D1774A136DAC
:103B680023F4E043216E0B431365236813F4005FCD
:103B780038D0636EB3F5003F53D028D843B1B3F5BE
:103B8800803F21D1012104F10800FFF781FD05469E
:103B9800002D4DD1694A136D23F4E023616E0B4368
:103BA80013651FE001263546DFE7644AD36A43F40C
:103BB8000033D362D0E7002104F12800FFF7EEFDBF
:103BC8000546C9E72E46D0E7012635460AE0B3F593
:103BD800802FDDD0B3F5A02FDAD0B3F5403FD7D092
:103BE80001263546236813F4804F31D0D4F8B0301D
:103BF800B3F1005F45D020D843B1B3F1805F19D14C
:103C0800012104F10800FFF743FD0546002D3FD1CF
:103C18004A4A936D23F0E043D4F8B0100B43936500
:103C280016E0012104F12800FFF7B8FD0546AFE7CB
:103C38002E46D7E7012635460AE0B3F1804FE5D096
:103C4800B3F1A04FE2D0B3F1405FDFD00126354693
:103C5800236813F4004F09D0236FB3F1805F19D0A4
:103C6800B3F1005F24D0D3B101263546236813F0A1
:103C7800807F33D0A36C032B5BD8DFE803F02722C7
:103C88005327012104F12800FFF788FD0546BDE709
:103C98002E46DDE7294AD36A43F40033D36275B967
:103CA800264A136D23F04053216F0B431365DDE75C
:103CB800012104F10800FFF7EBFC0546EFE72E466B
:103CC800D4E71E4AD36A43F40033D362A5BB1B4A28
:103CD800D36C23F00303A16C0B43D364236813F460
:103CE800800F2DD1236813F0010F00F0A580E36F3A
:103CF800282B00F29F80DFE803F08D9D9D9D9D9D00
:103D08009D9D879D9D9D9D9D9D9D969D9D9D9D9DF8
:103D18009D9D8D9D9D9D9D9D9D9D8D9D9D9D9D9DEB
:103D28009D9D8D00022104F10800FFF7B1FC0546B6
:103D3800CCE701263546D1E72E46CFE700440258A6
:103D4800914A136843F480731360FDF77FFB0746BD
:103D58008D4B1B6813F4807F05D1FDF777FBC01BE3
:103D68006428F5D90325002D4AD1884B1B6FD4F858
:103D7800B420534013F4407F0CD0844B1A6F22F4C4
:103D88004072196F41F480311967196F21F480313D
:103D980019671A67D4F8B430B3F5807F15D08DBB96
:103DA800D4F8B43003F44072B2F5407F1ED0774A9D
:103DB800136923F47C53136174490B6FD4F8B4204E
:103DC800C2F30B0213430B678CE7FDF73FFB074673
:103DD8006E4B1B6F13F0020FE1D1FDF737FBC01BD1
:103DE80041F288339842F3D90325D8E76748026936
:103DF80022F47C52664901EA131313430361DBE79B
:103E08002E466FE72E466DE7012104F10800FFF703
:103E18003FFC0546E5B95D4A536D23F03803E16F71
:103E28000B43536508E0012104F12800FFF7B6FCB5
:103E38000546EFE701263546236813F0020F17D031
:103E4800A36F052B28D8DFE803F00B05200B0B0B1D
:103E58002E46F1E7012104F10800FFF719FC054699
:103E6800EDB94A4A536D23F00703A16F0B4353651D
:103E7800236813F0040F23D0D4F89430052B45D8C9
:103E8800DFE803F0150F3D151515012104F1280091
:103E9800FFF784FC0546E3E701263546E8E72E46AA
:103EA800E6E7012104F10800FFF7F2FB054685BBB0
:103EB800364A936D23F00703D4F894100B439365A7
:103EC800236813F0200F34D0D4F89030B3F1005F9A
:103ED8004ED023D843B1B3F1805F1CD1002104F147
:103EE8000800FFF7D5FB0546002D48D1274A536D3A
:103EF80023F0E043D4F890100B43536519E00121F7
:103F080004F12800FFF74AFC0546D0E701263546AC
:103F1800D6E72E46D4E7012635460AE0B3F1804FAE
:103F2800E2D0B3F1A04FDFD0B3F1405FDCD001267F
:103F38003546236813F0400F37D0D4F89C30B3F5DA
:103F4800006F53D026D843B1B3F5806F19D1002143
:103F580004F10800FFF79CFB0546002D4DD10B4AE4
:103F6800936D23F4E053D4F89C100B4393651CE045
:103F7800022104F12800FFF711FC0546B4E72E469C
:103F8800D7E70126354610E0004802580044025899
:103F9800CFFFFF00B3F5805FDFD0B3F5A05FDCD0C3
:103FA800B3F5406FD9D001263546236813F0800F4A
:103FB80033D0D4F8A030B3F5804F00F0A38021D8D7
:103FC80043B1B3F5005F1AD1002104F10800FFF7EF
:103FD8005FFB0546002D40F09C80814A936D23F4D9
:103FE8006043D4F8A0100B43936516E0022104F156
:103FF8002800FFF7D3FB0546AFE72E46D5E7012695
:1040080035460AE0B3F5004FE4D0B3F5204FE1D0D0
:10401800B3F5C04FDED001263546236813F0080FEC
:104028000CD0D4F88430B3F5805F74D06C4A536DEB
:1040380023F44053D4F884100B435365236813F0DA
:10404800100F0CD0D4F89830B3F5807F6CD0644A48
:10405800936D23F44073D4F898100B439365236849
:1040680013F4002F0BD0D4F8A430B3F5803F74D0EC
:10407800B3F5003F67D0002B5FD001263546236893
:1040880013F4802F0CD0D4F88830B3F5001F7CD0FF
:10409800B3F5401F6FD0B3F5801F67D001263546B2
:1040A800236813F4803F08D0236D002B76D0B3F536
:1040B800803F00F0818001263546236813F0005FB9
:1040C80040F08380236813F4003F00F08E80D4F81A
:1040D8008030B3F5807F00F0EC8040F28380B3F548
:1040E800007F03D0B3F5407F40F0E180002D40F021
:1040F800E6803B4A536D23F44073D4F880100B4399
:10410800536572E0022104F12800FFF747FB0546DA
:1041180060E72E4681E7022104F12800FFF73EFB05
:10412800002883D0012681E7022104F12800FFF747
:1041380035FB00288BD0012689E7002104F108000F
:10414800FFF7A6FA05467DB9254A936D23F4403357
:10415800D4F8A4100B43936591E7022104F12800D9
:10416800FFF71CFB0546EEE72E4688E71C4AD36A94
:1041780043F40033D3627DB9194A536D23F44013D5
:10418800D4F888100B4353658AE7012104F128000D
:10419800FFF704FB0546EEE72E4681E7104AD36A8F
:1041A80043F40033D36275B90D4AD36C23F48033DA
:1041B800216D0B43D36480E7022104F10800FFF767
:1041C80067FA0546EFE72E4677E7022104F1280053
:1041D800FFF7E4FA00283FF475AF012672E700BF45
:1041E80000440258002B81D00126236813F4801F55
:1041F80006D04F4A136D23F00043616F0B431365DC
:10420800236813F0805F07D0494A136923F4804379
:10421800D4F8B8100B431361236813F4001F06D0B9
:10422800434A136D23F08073E16E0B4313652368D3
:1042380013F0804F09D03E4B1A6922F400421A61EC
:104248001A69D4F8BC100A431A612368002B06DAED
:10425800374AD36C23F04053616D0B43D364236812
:1042680013F4000F07D0324A536D23F44003D4F8F7
:104278008C100B435365636813F0010F21D16368F9
:1042880013F0020F26D1636813F0040F2BD1636873
:1042980013F0080F30D1636813F0100F35D163683D
:1042A80013F0200F3AD106B101263046F8BD012699
:1042B8009BE71F4AD36A43F40033D36216E72E46BE
:1042C80093E7002104F10800FFF7E2F90028D6D0AF
:1042D8000646D4E7012104F10800FFF7D9F90028C0
:1042E800D1D00646CFE7022104F10800FFF7D0F944
:1042F8000028CCD00646CAE7002104F12800FFF7C1
:104308004DFA0028C7D00646C5E7012104F1280068
:10431800FFF744FA0028C2D00646C0E7022104F19C
:104328002800FFF73BFA0028BDD00646BBE700BFD0
:104338000044025808B5FFF765F9054B1B6AC3F33B
:104348000213044AD35C03F01F03D84008BD00BF22
:1043580000440258A48500082DE9F0410446864B24
:104368009D6A9E6AC6F30536D86AC0F30010DB6BF7
:10437800C3F3CC0303FB00F0FCF760F8002E00F059
:10438800F58005F003050746012D79D0022D00F0D0
:10439800CB800DB33046FCF751F801467748FCF75F
:1043A80059F90546744B986BC0F30800FCF746F8BA
:1043B80006464FF064513846FCF798F801463046F7
:1043C800FBF78CFF4FF07E51FBF788FF014628462C
:1043D800FCF78CF8054674E0674B1B6813F0200F58
:1043E8002CD0DFF89481D8F80030C3F3C1036448B7
:1043F800D840FCF723F805463046FCF71FF801467D
:104408002846FCF727F90546D8F83800C0F3080015
:10441800FCF714F806464FF064513846FCF766F886
:1044280001463046FBF75AFF4FF07E51FBF756FF27
:1044380001462846FCF75AF8054642E03046FBF7A5
:10444800FDFF01464F48FCF705F905464A4B986BB6
:10445800C0F30800FBF7F2FF06464FF064513846F8
:10446800FCF744F801463046FBF738FF4FF07E5121
:10447800FBF734FF01462846FCF738F8054620E0EC
:104488003046FBF7DBFF01463C48FCF7E3F80546FE
:10449800394B986BC0F30800FBF7D0FF06464FF086
:1044A80064513846FCF722F801463046FBF716FF00
:1044B8004FF07E51FBF712FF01462846FCF716F82D
:1044C80005462D4EB06BC0F34620FBF7B7FF4FF003
:1044D8007E51FBF703FF01462846FCF7BBF8FCF7C3
:1044E80055F92060B06BC0F30640FBF7A7FF4FF00B
:1044F8007E51FBF7F3FE01462846FCF7ABF8FCF7C4
:1045080045F96060B06BC0F30660FBF797FF4FF0AA
:104518007E51FBF7E3FE01462846FCF79BF8FCF7C3
:1045280035F9A060BDE8F0813046FBF787FF01460A
:104538001548FCF78FF805460F4B986BC0F3080039
:10454800FBF77CFF06464FF064513846FBF7CEFF79
:1045580001463046FBF7C2FE4FF07E51FBF7BEFE28
:1045680001462846FBF7C2FF0546AAE70023236059
:104578006360A360D6E700BF004402580024744A71
:104588000090D0030024744C0024F44A2DE9F04133
:104598000446864B9D6A9E6AC6F30556D86AC0F3E0
:1045A80000205B6CC3F3CC0303FB00F0FBF746FF72
:1045B800002E00F0F58005F003050746012D79D09F
:1045C800022D00F0CB800DB33046FBF737FF0146D4
:1045D8007748FCF73FF80546744B186CC0F30800A1
:1045E800FBF72CFF06464FF064513846FBF77EFF79
:1045F80001463046FBF772FE4FF07E51FBF76EFE28
:1046080001462846FBF772FF054674E0674B1B68B6
:1046180013F0200F2CD0DFF89481D8F80030C3F3C2
:10462800C1036448D840FBF709FF05463046FBF74D
:1046380005FF01462846FCF70DF80546D8F8400066
:10464800C0F30800FBF7FAFE06464FF064513846FF
:10465800FBF74CFF01463046FBF740FE4FF07E511A
:10466800FBF73CFE01462846FBF740FF054642E0C3
:104678003046FBF7E3FE01464F48FBF7EBFF0546E4
:104688004A4B186CC0F30800FBF7D8FE06464FF0FB
:1046980064513846FBF72AFF01463046FBF71EFEF9
:1046A8004FF07E51FBF71AFE01462846FBF71EFF26
:1046B800054620E03046FBF7C1FE01463C48FBF7C3
:1046C800C9FF0546394B186CC0F30800FBF7B6FE66
:1046D80006464FF064513846FBF708FF014630465E
:1046E800FBF7FCFD4FF07E51FBF7F8FD014628462D
:1046F800FBF7FCFE05462D4E306CC0F34620FBF759
:104708009DFE4FF07E51FBF7E9FD01462846FBF779
:10471800A1FFFCF73BF82060306CC0F30640FBF7C4
:104728008DFE4FF07E51FBF7D9FD01462846FBF779
:1047380091FFFCF72BF86060306CC0F30660FBF764
:104748007DFE4FF07E51FBF7C9FD01462846FBF779
:1047580081FFFCF71BF8A060BDE8F0813046FBF74D
:104768006DFE01461548FBF775FF05460F4B186CA3
:10477800C0F30800FBF762FE06464FF06451384666
:10478800FBF7B4FE01463046FBF7A8FD4FF07E511B
:10479800FBF7A4FD01462846FBF7A8FE0546AAE755
:1047A800002323606360A360D6E700BF004402587B
:1047B8000024744A0090D0030024744C0024F44A66
:1047C800C36B5B09C0680830C00803FB0000704772
:1047D800002800F0B78070B504460023836205689E
:1047E8005C4B5D4E9D4218BFB54214BF01260026A2
:1047F80007D0A3F574439D4203D0C3680F2B00F282
:10480800A3802046FFF7DCFF2EB1544B9D4202D017
:10481800082800F29B804F4A4F4B9D4218BF954293
:1048280003D003F580639D4202D1102800F29080E6
:1048380094F88130F3B1022384F881302268136838
:1048480023F00103136021688A6802F4F812A3694F
:10485800B3F1806F14D0636813F4800F23D0E3683A
:10486800062B20D921680B6823F48073206D03433D
:104878000B601DE084F880302046FCF7B3FADAE7D5
:104888006368B3F5800F06D0002BE4D1A36BB3F1B6
:10489800805FE0D102E0A06B0028F5D10B6843F4FB
:1048A80080530B60D7E721680B6823F480730B6093
:1048B800E369A16A0B431343E26B1343E16822687F
:1048C8000B439360636B626A1343A26B1343A26941
:1048D80013432269134362691343226A13436268CC
:1048E8001343E26C1343A2681343A26C1343A16DF4
:1048F80022680B43D36063686BB92268936823F41A
:10490800C05343F4006393602268936823F4C06340
:1049180043F4806393602268136D23F001031365E9
:10492800636813F4800F06D02268D36823F000432D
:10493800616D0B43D3600020C4F88400012384F820
:10494800813070BD012070470120FAE70120F8E7A7
:104958000120F6E70030014000380040003C0040EC
:10496800F0B4036A026A22F00102026246688469AE
:104978001F4A22400D68154323F002038C68234325
:104988001C4A1D4CA04218BF90420CBF01220022B5
:104998000CD004F58044A04214BF00240124174F12
:1049A800B84203D014B9164CA04205D123F008032D
:1049B800CC68234323F004035AB9124A904214BF27
:1049C800002201220D4CA04203D012B90C4A904299
:1049D80007D126F4407C4A6942EA0C0C8E6946EA03
:1049E8000C06466085614A6842630362F0BC704702
:1049F8008CFFFEFF00000140000401400040014020
:104A0800004801400044014070B4036A026A22F47D
:104A1800807202624568C4691A4A22400E681643C9
:104A280023F400738A6843EA0223174A174CA0420A
:104A380018BF90420CBF0122002206D123F4006364
:104A4800CC6843EA042323F480635AB9104A90429D
:104A580014BF002201220F4CA04203D012B90E4A03
:104A6800904207D125F4405C4A694CEA021C8D69E2
:104A78004CEA05154560C6614A68C263036270BCAA
:104A8800704700BF8CFFFEFF00000140000401409A
:104A980000440140004001400048014070B4036AEE
:104AA800026A22F4805202624468C569144A2A40A4
:104AB8000D6842EA052223F400538D6843EA053362
:104AC800104E114DA84218BFB0420DD005F58045D3
:104AD800A84214BF0025012506F58046B04203D040
:104AE80015B90A4DA84204D124F480444D6944EA1A
:104AF80085144460C2614A680264036270BC7047EE
:104B0800FF8CFFFE00000140000401400048014006
:104B180070B4036A026A22F4803202624268456D08
:104B2800144C2C400D682C4323F400338D6843EA61
:104B38000543114E114DA84218BFB0420DD005F5DE
:104B48008045A84214BF0025012506F58046B042DD
:104B580003D015B90A4DA84204D122F480324D6918
:104B680042EA0522426044654A688265036270BC75
:104B7800704700BF8FFFFEFF0000014000040140A6
:104B88000048014070B4036A026A22F4801202628B
:104B98004468456D144A2A400D6842EA052223F408
:104BA80000138D6843EA0553104E114DA84218BFF3
:104BB800B0420DD005F58045A84214BF0025012557
:104BC80006F58046B04203D015B90A4DA84204D173
:104BD80024F480244D6944EA8524446042654A6887
:104BE800C265036270BC7047FF8FFFFE0000014082
:104BF800000401400048014010B4036A046A24F02C
:104C080001040462846924F0F00C4CEA021223F0D7
:104C18000A030B438261036210BC704710B4036A35
:104C2800046A24F010040462846924F4704C4CEA89
:104C3800023223F0A00343EA01138261036210BC2D
:104C4800704700008268034B13400B4343F007038F
:104C5800836070478FFFCFFF70477047704770477A
:104C68007047704770B504460368DE681D6915F023
:104C7800020F10D016F0020F0DD06FF002021A6169
:104C88000123037703689B6913F0030F64D0FFF7D0
:104C9800E6FF0023237715F0040F12D016F0040F57
:104CA8000FD023686FF004021A6102232377236868
:104CB8009B6913F4407F55D02046FFF7D0FF0023AF
:104CC800237715F0080F12D016F0080F0FD02368BD
:104CD8006FF008021A61042323772368DB6913F055
:104CE800030F46D02046FFF7BAFF0023237715F0BD
:104CF800100F12D016F0100F0FD023686FF01002AB
:104D08001A61082323772368DB6913F4407F37D0BF
:104D18002046FFF7A4FF0023237715F0010F02D0E8
:104D280016F0010F33D115F4025F02D016F0800F90
:104D380035D115F4807F02D016F0800F37D115F0E9
:104D4800400F02D016F0400F39D115F0200F02D0D5
:104D580016F0200F3BD170BDFFF780FF2046FFF70C
:104D68007FFF96E72046FFF779FF2046FFF778FF99
:104D7800A5E72046FFF772FF2046FFF771FFB4E76B
:104D88002046FFF76BFF2046FFF76AFFC3E723685B
:104D98006FF001021A612046FFF75FFFC3E723683F
:104DA8006FF402521A61204600F043FBC1E7236802
:104DB8006FF480721A61204600F03CFBBFE723685D
:104DC8006FF040021A612046FFF74BFFBDE72368EA
:104DD8006FF020021A61204600F02AFBBBE70000B2
:104DE80030B503683D4A904214BF4FF0000E4FF0B3
:104DF800010EB0F1804F14BF72464EF00102AAB9FD
:104E0800374CA04214BF00240124364DA8420DD0CF
:104E180064B904F1804404F58234A04214BF00242C
:104E2800012405F50065A84200D01CB123F07003E9
:104E38004C68234312BB2A4A904214BF0022012225
:104E4800284CA0421AD0CAB902F1804202F5823237
:104E5800904214BF0022012204F50064A0420DD044
:104E680062B9214A904214BF0022012204F59A3403
:104E7800A04203D012B91D4A904204D123F4407CC9
:104E8800CB6843EA0C0323F080034A6913430360A9
:104E98008A68C2620A688262154A904214BF7346E1
:104EA8004EF0010363B9104B984214BF002301234D
:104EB80002F57052904203D013B90C4B984201D1BD
:104EC8000B69036301234361036913F0010F03D0E6
:104ED800036923F00103036130BD00BF00000140F6
:104EE8000008004000040040004401400048014020
:104EF8000004014060B310B5044690F83D3013B388
:104F0800022384F83D30214651F8040BFFF768FF6F
:104F1800012384F8483084F83E3084F83F3084F820
:104F2800403084F8413084F8423084F8433084F8C3
:104F3800443084F8453084F8463084F8473084F8A3
:104F48003D30002010BD80F83C30FCF793F8D7E7DF
:104F58000120704760B310B5044690F83D3013B394
:104F6800022384F83D30214651F8040BFFF738FF3F
:104F7800012384F8483084F83E3084F83F3084F8C0
:104F8800403084F8413084F8423084F8433084F863
:104F9800443084F8453084F8463084F8473084F843
:104FA8003D30002010BD80F83C30FFF755FED7E7B4
:104FB80001207047002852D070B50D46044690F87D
:104FC8003D30002B46D0022384F83D30226891689A
:104FD800244B0B409360214651F8040BFFF700FF68
:104FE800206881688369026A2E680E431E49194049
:104FF800AB68D5F818C043EA0C2343EA010C1B4BF5
:105008000CEA0303E968D5F81CC041EA0C211943EE
:105018002B6A1B03D5F810C043EA0C130B4322F08C
:10502800AA016A686D6942EA05120A438660216826
:105038008B6123681A62012384F8483084F83E3073
:1050480084F83F3084F8443084F8453084F83D30A3
:10505800002070BD80F83C30FCF724F8B3E701204D
:10506800704700BFF8BFFEFFFCFCFFFF0303FFFF14
:1050780070B4036A026A22F0100202624568846909
:105088001A4A22400E6842EA062623F020038A685C
:1050980043EA0213164A174CA04218BF90420CBFAD
:1050A8000122002206D123F08003CC6843EA0413CE
:1050B80023F040035AB9104A904214BF002201223B
:1050C8000E4CA04203D012B90D4A904207D125F4E4
:1050D800406C4A694CEA820C8D694CEA850545604A
:1050E80086614A688263036270BC7047FF8CFFFE6A
:1050F800000001400004014000440140004001401C
:105108000048014038B590F83C30012B00F09580FC
:1051180004460D46012380F83C30142A00F28880AA
:10512800DFE802F00B8686861F86868634868686AA
:10513800488686865D86868671000068FFF710FCC3
:105148002268936943F0080393612268936923F006
:10515800040393612268936929690B4393610020D2
:1051680067E00068FFF784FF2268936943F40063EF
:1051780093612268936923F4806393612268936939
:10518800296943EA01239361002052E00068FFF790
:105198003BFC2268D36943F00803D3612268D369D2
:1051A80023F00403D3612268D36929690B43D361CF
:1051B80000203EE00068FFF771FC2268D36943F4E1
:1051C8000063D3612268D36923F48063D3612268C2
:1051D800D369296943EA0123D361002029E00068E3
:1051E800FFF796FC2268536D43F008035365226865
:1051F800536D23F0040353652268536D29690B43EB
:105208005365002015E00068FFF7BCFC2268536D69
:1052180043F4006353652268536D23F48063536538
:105228002268536D296943EA01235365002000E091
:105238000120002384F83C3038BD0220FCE710B47C
:10524800846824F47F4C42EA03220A4342EA0C02AF
:10525800826010BC7047000090F83C30012B00F0D1
:105268008F8010B50446012380F83C30022380F873
:105278003D3002689068434B034093600B68702B85
:1052880055D031D8502B6CD00CD9602B2AD1CA6894
:1052980049682068FFF7C2FC60212068FFF7D2FC4C
:1052A800002035E0402B0AD1CA6849682068FFF71A
:1052B800A3FC40212068FFF7C5FC002028E05BD84C
:1052C800202B07D003D9302B04D0012020E00BB1CC
:1052D800102B05D119462068FFF7B4FC002017E011
:1052E800012015E0012013E0B3F5005F2CD00BD9A5
:1052F800254A9342EED012D9244A9342EAD010327A
:105308009342E7D0012003E0B3F5805F36D1002057
:10531800012384F83D30002384F83C3010BDB3F5F8
:10532800801FD7D0B3F1101FD4D00120F0E7CB688D
:105338004A6889682068FFF782FF2268936843F00B
:10534800770393600020E3E7CB684A6889682068A0
:10535800FFF775FF2268936843F480439360002049
:10536800D6E7CA6849682068FFF746FC50212068DC
:10537800FFF768FC0020CBE70120C9E70120C7E759
:10538800022070478800CEFF200010003000100077
:1053980090F83C30012B45D070B4012380F83C30A4
:1053A800022380F83D3003685A689C681E4E1F4DE2
:1053B800AB4218BFB34203D122F470024D682A43AE
:1053C80022F070020D682A435A600368164AB3F146
:1053D800804F18BF934217D0A2F57C42934213D056
:1053E80002F5806293420FD002F5806293420BD09F
:1053F80002F57842934207D0A2F56C42934203D05B
:1054080002F59432934204D124F080048A6814434C
:105418009C60012380F83D30002380F83C3018461A
:1054280070BC704702207047000001400004014032
:105438007047704770470000026852E8003F23F445
:10544800907342E800310029F6D1026802F108039E
:1054580053E8001F0D4B0B40083242E80031002989
:10546800F3D1C36E012B06D02023C0F88C30002363
:10547800C36643677047026852E8003F23F0100391
:1054880042E800310029F6D1EEE700BFFEFFFFEF4A
:10549800704708B5026852E8003F23F0400342E82D
:1054A80000310029F6D12023C0F888300023836713
:1054B800FFF7EEFF08BD704708B5806B0023A0F822
:1054C8005E30A0F85630FFF7F6FF08BD70470000C1
:1054D80070B504460168CB6908688D6840F60F020C
:1054E8001A4008D113F0200F05D010F0200F34D146
:1054F80015F0805F31D12AB18B4A2A4033D18B4EC7
:10550800304230D1E26E012A00F0C68013F4801FC9
:1055180003D015F4800F40F09B8113F0800F07D063
:1055280010F0800F40F09B8115F4000F40F0978138
:1055380013F0400F03D010F0400F40F0978113F4A0
:10554800000F03D010F0804F40F0948113F0807F5B
:1055580002D00028C0F2928170BD636F002BFBD08F
:1055680020469847F8E713F0010F09D010F4807F20
:1055780006D001260E62D4F890103143C4F890107A
:1055880013F0020F0BD015F0010F08D02168022686
:105598000E62D4F8901041F00401C4F8901013F092
:1055A800040F0BD015F0010F08D0216804260E62F5
:1055B800D4F8901041F00201C4F8901013F0080FCD
:1055C8000BD010F0200F00D13AB1226808211162E7
:1055D800D4F890200A43C4F8902013F4006F0CD03C
:1055E80010F0806F09D022684FF400611162D4F87E
:1055F800902042F02002C4F89020D4F89020002A8D
:10560800AAD013F0200F09D010F0200F02D115F006
:10561800805F03D0636F0BB120469847D4F8902081
:1056280023689B6813F0400F02D112F0280F2CD08A
:105638002046FFF701FF23689B6813F0400F20D036
:10564800226802F1080353E8003F23F040030832C0
:1056580042E800310029F3D1D4F880306BB1344AE4
:105668001A65D4F88000FCF71BF900283FF474AFE2
:10567800D4F88000036D98476EE72046FFF71BFFBC
:105688006AE72046FFF717FF66E72046FFF713FF94
:105698000023C4F890305FE713F0100F3FF436AFE3
:1056A80010F0100F3FF432AF10230B6223689B6891
:1056B80013F0400F00F09280D4F8802013681D4842
:1056C8001D498B4218BF834238D018318B4235D0E0
:1056D80018318B4232D018318B422FD018318B427F
:1056E8002CD018318B4229D018318B4226D001F5A5
:1056F80056718B4222D018318B421FD018318B4201
:105708001CD018318B4219D018318B4216D0183161
:105718008B4213D018318B4210D018318B420DD0E8
:105728005B689BB20CE000BF010000102001000480
:10573800C154000810000240280002405B689BB278
:10574800002B3FF409AFB4F85C1099427FF604AF20
:10575800A4F85E30D369B3F5807F32D0226852E86E
:10576800003F23F4807342E800310029F6D1226813
:1057780002F1080353E8003F23F00103083242E82E
:1057880000310029F3D1226802F1080353E8003FF1
:1057980023F04003083242E800310029F3D12023E6
:1057A800C4F88C300023E366226852E8003F23F0F7
:1057B800100342E800310029F6D1D4F88000FBF745
:1057C800CFFE02232367B4F85C10B4F85E309BB2B6
:1057D800C91A89B22046FFF779FEBDE6B4F85C1015
:1057E800B4F85E309BB2C91A89B2B4F85E309BB285
:1057F800002B3FF4B1AE00293FF4AEAE226852E868
:10580800003F23F4907342E800300028F6D1226864
:1058180002F1080353E8000F1A4B0340083242E82C
:1058280000300028F3D12023C4F88C300023E3662D
:105838006367226852E8003F23F0100342E8003013
:105848000028F6D1022323672046FFF73FFE83E6B0
:105858004FF480130B62204600F088FC7CE6A36FAF
:10586800002B3FF479AE2046984775E62046FFF7AF
:1058780010FE71E6204600F07BFC6DE6204600F045
:1058880076FC69E6FEFFFFEF70B586B00446016856
:1058980083680269134342691343C2691343086862
:1058A800884A024013430B602268536823F440532C
:1058B800E1680B435360A1692268834B9A4201D087
:1058C800236A19439068814B03400B439360226815
:1058D800D36A23F00F03616A0B43D36222687C4BBF
:1058E8009A4221D07B4B9A4200F08C807A4B9A42A4
:1058F80000F0A280794B9A4200F0B580784B9A422A
:1059080000F0C880774B9A4200F0F480764B9A42B8
:1059180000F01981754B9A4200F02C816A4B9A422B
:1059280000F03F81802333E0714B5B6D03F0380357
:10593800282B65D8DFE813F02900640064006400B0
:1059480064006400640064004D0164006400640045
:1059580064006400640064002B0064006400640058
:1059680064006400640064005E0064006400640015
:105978006400640064006400600064006400640003
:1059880064006400640064006200012300E00823EE
:105998004D498A4200F02F81E069B0F5004F00F0D0
:1059A800AF81202B00F20782202B00F25182DFE822
:1059B80013F01E0224024F024F0227024F024F0229
:1059C8004F022C024F024F024F024F024F024F026A
:1059D8004F0231024F024F024F024F024F024F0255
:1059E8004F024F024F024F024F024F024F024F0227
:1059F8004F023D021023CBE72023C9E74023C7E726
:105A08008023C5E73A4B5B6D03F00703052B11D8DC
:105A1800DFE813F00600E10008000A000C000E00A1
:105A28000023B5E70823B3E71023B1E72023AFE746
:105A38004023ADE78023ABE72D4B5B6D03F00703F5
:105A4800052B0ED8DFE803F003C90507090B00236F
:105A58009EE708239CE710239AE7202398E7402332
:105A680096E7802394E7224B5B6D03F00703052B31
:105A78000ED8DFE803F003B40507090B002387E716
:105A8800082385E7102383E7202381E740237FE766
:105A980080237DE7164B5B6D03F00703052B0ED8BB
:105AA800DFE803F0039F0507090B002370E70823CD
:105AB8006EE710236CE720236AE7402368E780231A
:105AC80066E700BFF369FFCF000C0058FFF4FF1131
